{
  "_format": "hh-sol-artifact-1",
  "contractName": "MultiMetaverse",
  "sourceName": "contracts/MultiMetaverse.sol",
  "abi": [
    {
      "inputs": [
        {
          "internalType": "string[]",
          "name": "weaponNames",
          "type": "string[]"
        },
        {
          "internalType": "string[]",
          "name": "weaponImageURIs",
          "type": "string[]"
        },
        {
          "internalType": "uint256[]",
          "name": "weaponHP",
          "type": "uint256[]"
        },
        {
          "internalType": "uint256[]",
          "name": "weaponAttackDmg",
          "type": "uint256[]"
        },
        {
          "internalType": "string",
          "name": "bossName",
          "type": "string"
        },
        {
          "internalType": "string",
          "name": "bossImageURI",
          "type": "string"
        },
        {
          "internalType": "uint256",
          "name": "bossHp",
          "type": "uint256"
        },
        {
          "internalType": "uint256",
          "name": "bossAttackDamage",
          "type": "uint256"
        }
      ],
      "stateMutability": "nonpayable",
      "type": "constructor"
    },
    {
      "anonymous": false,
      "inputs": [
        {
          "indexed": true,
          "internalType": "address",
          "name": "owner",
          "type": "address"
        },
        {
          "indexed": true,
          "internalType": "address",
          "name": "approved",
          "type": "address"
        },
        {
          "indexed": true,
          "internalType": "uint256",
          "name": "tokenId",
          "type": "uint256"
        }
      ],
      "name": "Approval",
      "type": "event"
    },
    {
      "anonymous": false,
      "inputs": [
        {
          "indexed": true,
          "internalType": "address",
          "name": "owner",
          "type": "address"
        },
        {
          "indexed": true,
          "internalType": "address",
          "name": "operator",
          "type": "address"
        },
        {
          "indexed": false,
          "internalType": "bool",
          "name": "approved",
          "type": "bool"
        }
      ],
      "name": "ApprovalForAll",
      "type": "event"
    },
    {
      "anonymous": false,
      "inputs": [
        {
          "indexed": false,
          "internalType": "uint256",
          "name": "newBossHp",
          "type": "uint256"
        },
        {
          "indexed": false,
          "internalType": "uint256",
          "name": "newPlayerHp",
          "type": "uint256"
        }
      ],
      "name": "AttackComplete",
      "type": "event"
    },
    {
      "anonymous": false,
      "inputs": [
        {
          "indexed": true,
          "internalType": "address",
          "name": "from",
          "type": "address"
        },
        {
          "indexed": true,
          "internalType": "address",
          "name": "to",
          "type": "address"
        },
        {
          "indexed": true,
          "internalType": "uint256",
          "name": "tokenId",
          "type": "uint256"
        }
      ],
      "name": "Transfer",
      "type": "event"
    },
    {
      "anonymous": false,
      "inputs": [
        {
          "indexed": false,
          "internalType": "address",
          "name": "sender",
          "type": "address"
        },
        {
          "indexed": false,
          "internalType": "uint256",
          "name": "tokenId",
          "type": "uint256"
        },
        {
          "indexed": false,
          "internalType": "uint256",
          "name": "weaponIndex",
          "type": "uint256"
        }
      ],
      "name": "WeaponNFTMinted",
      "type": "event"
    },
    {
      "inputs": [
        {
          "internalType": "address",
          "name": "to",
          "type": "address"
        },
        {
          "internalType": "uint256",
          "name": "tokenId",
          "type": "uint256"
        }
      ],
      "name": "approve",
      "outputs": [],
      "stateMutability": "nonpayable",
      "type": "function"
    },
    {
      "inputs": [],
      "name": "attackBoss",
      "outputs": [],
      "stateMutability": "nonpayable",
      "type": "function"
    },
    {
      "inputs": [
        {
          "internalType": "address",
          "name": "owner",
          "type": "address"
        }
      ],
      "name": "balanceOf",
      "outputs": [
        {
          "internalType": "uint256",
          "name": "",
          "type": "uint256"
        }
      ],
      "stateMutability": "view",
      "type": "function"
    },
    {
      "inputs": [],
      "name": "bigBoss",
      "outputs": [
        {
          "internalType": "string",
          "name": "name",
          "type": "string"
        },
        {
          "internalType": "string",
          "name": "imageURI",
          "type": "string"
        },
        {
          "internalType": "uint256",
          "name": "hp",
          "type": "uint256"
        },
        {
          "internalType": "uint256",
          "name": "maxHp",
          "type": "uint256"
        },
        {
          "internalType": "uint256",
          "name": "attackDamage",
          "type": "uint256"
        }
      ],
      "stateMutability": "view",
      "type": "function"
    },
    {
      "inputs": [],
      "name": "checkIfUserHasNFT",
      "outputs": [
        {
          "components": [
            {
              "internalType": "uint256",
              "name": "weaponIndex",
              "type": "uint256"
            },
            {
              "internalType": "string",
              "name": "name",
              "type": "string"
            },
            {
              "internalType": "string",
              "name": "imageURI",
              "type": "string"
            },
            {
              "internalType": "uint256",
              "name": "hp",
              "type": "uint256"
            },
            {
              "internalType": "uint256",
              "name": "maxHp",
              "type": "uint256"
            },
            {
              "internalType": "uint256",
              "name": "attackDamage",
              "type": "uint256"
            }
          ],
          "internalType": "struct MultiMetaverse.WeaponAttributes",
          "name": "",
          "type": "tuple"
        }
      ],
      "stateMutability": "view",
      "type": "function"
    },
    {
      "inputs": [],
      "name": "getAllDefaultWeapons",
      "outputs": [
        {
          "components": [
            {
              "internalType": "uint256",
              "name": "weaponIndex",
              "type": "uint256"
            },
            {
              "internalType": "string",
              "name": "name",
              "type": "string"
            },
            {
              "internalType": "string",
              "name": "imageURI",
              "type": "string"
            },
            {
              "internalType": "uint256",
              "name": "hp",
              "type": "uint256"
            },
            {
              "internalType": "uint256",
              "name": "maxHp",
              "type": "uint256"
            },
            {
              "internalType": "uint256",
              "name": "attackDamage",
              "type": "uint256"
            }
          ],
          "internalType": "struct MultiMetaverse.WeaponAttributes[]",
          "name": "",
          "type": "tuple[]"
        }
      ],
      "stateMutability": "view",
      "type": "function"
    },
    {
      "inputs": [
        {
          "internalType": "uint256",
          "name": "tokenId",
          "type": "uint256"
        }
      ],
      "name": "getApproved",
      "outputs": [
        {
          "internalType": "address",
          "name": "",
          "type": "address"
        }
      ],
      "stateMutability": "view",
      "type": "function"
    },
    {
      "inputs": [],
      "name": "getBigBoss",
      "outputs": [
        {
          "components": [
            {
              "internalType": "string",
              "name": "name",
              "type": "string"
            },
            {
              "internalType": "string",
              "name": "imageURI",
              "type": "string"
            },
            {
              "internalType": "uint256",
              "name": "hp",
              "type": "uint256"
            },
            {
              "internalType": "uint256",
              "name": "maxHp",
              "type": "uint256"
            },
            {
              "internalType": "uint256",
              "name": "attackDamage",
              "type": "uint256"
            }
          ],
          "internalType": "struct MultiMetaverse.BigBoss",
          "name": "",
          "type": "tuple"
        }
      ],
      "stateMutability": "view",
      "type": "function"
    },
    {
      "inputs": [
        {
          "internalType": "address",
          "name": "owner",
          "type": "address"
        },
        {
          "internalType": "address",
          "name": "operator",
          "type": "address"
        }
      ],
      "name": "isApprovedForAll",
      "outputs": [
        {
          "internalType": "bool",
          "name": "",
          "type": "bool"
        }
      ],
      "stateMutability": "view",
      "type": "function"
    },
    {
      "inputs": [
        {
          "internalType": "uint256",
          "name": "_weaponIndex",
          "type": "uint256"
        }
      ],
      "name": "mintCharacterNFT",
      "outputs": [],
      "stateMutability": "nonpayable",
      "type": "function"
    },
    {
      "inputs": [],
      "name": "name",
      "outputs": [
        {
          "internalType": "string",
          "name": "",
          "type": "string"
        }
      ],
      "stateMutability": "view",
      "type": "function"
    },
    {
      "inputs": [
        {
          "internalType": "uint256",
          "name": "",
          "type": "uint256"
        }
      ],
      "name": "nftHolderAttributes",
      "outputs": [
        {
          "internalType": "uint256",
          "name": "weaponIndex",
          "type": "uint256"
        },
        {
          "internalType": "string",
          "name": "name",
          "type": "string"
        },
        {
          "internalType": "string",
          "name": "imageURI",
          "type": "string"
        },
        {
          "internalType": "uint256",
          "name": "hp",
          "type": "uint256"
        },
        {
          "internalType": "uint256",
          "name": "maxHp",
          "type": "uint256"
        },
        {
          "internalType": "uint256",
          "name": "attackDamage",
          "type": "uint256"
        }
      ],
      "stateMutability": "view",
      "type": "function"
    },
    {
      "inputs": [
        {
          "internalType": "address",
          "name": "",
          "type": "address"
        }
      ],
      "name": "nftHolders",
      "outputs": [
        {
          "internalType": "uint256",
          "name": "",
          "type": "uint256"
        }
      ],
      "stateMutability": "view",
      "type": "function"
    },
    {
      "inputs": [
        {
          "internalType": "uint256",
          "name": "tokenId",
          "type": "uint256"
        }
      ],
      "name": "ownerOf",
      "outputs": [
        {
          "internalType": "address",
          "name": "",
          "type": "address"
        }
      ],
      "stateMutability": "view",
      "type": "function"
    },
    {
      "inputs": [
        {
          "internalType": "address",
          "name": "from",
          "type": "address"
        },
        {
          "internalType": "address",
          "name": "to",
          "type": "address"
        },
        {
          "internalType": "uint256",
          "name": "tokenId",
          "type": "uint256"
        }
      ],
      "name": "safeTransferFrom",
      "outputs": [],
      "stateMutability": "nonpayable",
      "type": "function"
    },
    {
      "inputs": [
        {
          "internalType": "address",
          "name": "from",
          "type": "address"
        },
        {
          "internalType": "address",
          "name": "to",
          "type": "address"
        },
        {
          "internalType": "uint256",
          "name": "tokenId",
          "type": "uint256"
        },
        {
          "internalType": "bytes",
          "name": "_data",
          "type": "bytes"
        }
      ],
      "name": "safeTransferFrom",
      "outputs": [],
      "stateMutability": "nonpayable",
      "type": "function"
    },
    {
      "inputs": [
        {
          "internalType": "address",
          "name": "operator",
          "type": "address"
        },
        {
          "internalType": "bool",
          "name": "approved",
          "type": "bool"
        }
      ],
      "name": "setApprovalForAll",
      "outputs": [],
      "stateMutability": "nonpayable",
      "type": "function"
    },
    {
      "inputs": [
        {
          "internalType": "bytes4",
          "name": "interfaceId",
          "type": "bytes4"
        }
      ],
      "name": "supportsInterface",
      "outputs": [
        {
          "internalType": "bool",
          "name": "",
          "type": "bool"
        }
      ],
      "stateMutability": "view",
      "type": "function"
    },
    {
      "inputs": [],
      "name": "symbol",
      "outputs": [
        {
          "internalType": "string",
          "name": "",
          "type": "string"
        }
      ],
      "stateMutability": "view",
      "type": "function"
    },
    {
      "inputs": [
        {
          "internalType": "uint256",
          "name": "_tokenId",
          "type": "uint256"
        }
      ],
      "name": "tokenURI",
      "outputs": [
        {
          "internalType": "string",
          "name": "",
          "type": "string"
        }
      ],
      "stateMutability": "view",
      "type": "function"
    },
    {
      "inputs": [
        {
          "internalType": "address",
          "name": "from",
          "type": "address"
        },
        {
          "internalType": "address",
          "name": "to",
          "type": "address"
        },
        {
          "internalType": "uint256",
          "name": "tokenId",
          "type": "uint256"
        }
      ],
      "name": "transferFrom",
      "outputs": [],
      "stateMutability": "nonpayable",
      "type": "function"
    }
  ],
  "bytecode": "0x60806040523480156200001157600080fd5b50604051620056fd380380620056fd833981810160405281019062000037919062000a5a565b6040518060400160405280600781526020017f576561706f6e73000000000000000000000000000000000000000000000000008152506040518060400160405280600381526020017f57504e00000000000000000000000000000000000000000000000000000000008152508160009080519060200190620000bb929190620007ed565b508060019080519060200190620000d4929190620007ed565b5050506040518060a0016040528085815260200184815260200183815260200183815260200182815250600960008201518160000190805190602001906200011e929190620007ed565b5060208201518160010190805190602001906200013d929190620007ed565b50604082015181600201556060820151816003015560808201518160040155905050620002c06040518060600160405280602a8152602001620056d3602a9139600960000180546200018f9062000de5565b80601f0160208091040260200160405190810160405280929190818152602001828054620001bd9062000de5565b80156200020e5780601f10620001e2576101008083540402835291602001916200020e565b820191906000526020600020905b815481529060010190602001808311620001f057829003601f168201915b5050505050600960020154600960010180546200022b9062000de5565b80601f0160208091040260200160405190810160405280929190818152602001828054620002599062000de5565b8015620002aa5780601f106200027e57610100808354040283529160200191620002aa565b820191906000526020600020905b8154815290600101906020018083116200028c57829003601f168201915b50505050506200070260201b62001bd51760201c565b60005b8851811015620006dc5760076040518060c001604052808381526020018b84815181106200031a577f4e487b7100000000000000000000000000000000000000000000000000000000600052603260045260246000fd5b602002602001015181526020018a848151811062000361577f4e487b7100000000000000000000000000000000000000000000000000000000600052603260045260246000fd5b60200260200101518152602001898481518110620003a8577f4e487b7100000000000000000000000000000000000000000000000000000000600052603260045260246000fd5b60200260200101518152602001898481518110620003ef577f4e487b7100000000000000000000000000000000000000000000000000000000600052603260045260246000fd5b6020026020010151815260200188848151811062000436577f4e487b7100000000000000000000000000000000000000000000000000000000600052603260045260246000fd5b6020026020010151815250908060018154018082558091505060019003906000526020600020906006020160009091909190915060008201518160000155602082015181600101908051906020019062000492929190620007ed565b506040820151816002019080519060200190620004b1929190620007ed565b50606082015181600301556080820151816004015560a0820151816005015550506000600782815481106200050f577f4e487b7100000000000000000000000000000000000000000000000000000000600052603260045260246000fd5b90600052602060002090600602016040518060c001604052908160008201548152602001600182018054620005449062000de5565b80601f0160208091040260200160405190810160405280929190818152602001828054620005729062000de5565b8015620005c35780601f106200059757610100808354040283529160200191620005c3565b820191906000526020600020905b815481529060010190602001808311620005a557829003601f168201915b50505050508152602001600282018054620005de9062000de5565b80601f01602080910402602001604051908101604052809291908181526020018280546200060c9062000de5565b80156200065d5780601f1062000631576101008083540402835291602001916200065d565b820191906000526020600020905b8154815290600101906020018083116200063f57829003601f168201915b5050505050815260200160038201548152602001600482015481526020016005820154815250509050620006c4604051806060016040528060258152602001620056ae602591398260200151836060015184604001516200070260201b62001bd51760201c565b50600181620006d4919062000d48565b9050620002c3565b50620006f46006620007ae60201b62001c771760201c565b505050505050505062000ed3565b620007a8848484846040516024016200071f949392919062000c05565b6040516020818303038152906040527f8d142cdd000000000000000000000000000000000000000000000000000000007bffffffffffffffffffffffffffffffffffffffffffffffffffffffff19166020820180517bffffffffffffffffffffffffffffffffffffffffffffffffffffffff8381831617835250505050620007c460201b60201c565b50505050565b6001816000016000828254019250508190555050565b60008151905060006a636f6e736f6c652e6c6f679050602083016000808483855afa5050505050565b828054620007fb9062000de5565b90600052602060002090601f0160209004810192826200081f57600085556200086b565b82601f106200083a57805160ff19168380011785556200086b565b828001600101855582156200086b579182015b828111156200086a5782518255916020019190600101906200084d565b5b5090506200087a91906200087e565b5090565b5b80821115620008995760008160009055506001016200087f565b5090565b6000620008b4620008ae8462000c9b565b62000c67565b9050808382526020820190508260005b85811015620008f85781518501620008dd888262000a16565b845260208401935060208301925050600181019050620008c4565b5050509392505050565b600062000919620009138462000cca565b62000c67565b905080838252602082019050828560208602820111156200093957600080fd5b60005b858110156200096d578162000952888262000a43565b8452602084019350602083019250506001810190506200093c565b5050509392505050565b60006200098e620009888462000cf9565b62000c67565b905082815260208101848484011115620009a757600080fd5b620009b484828562000daf565b509392505050565b600082601f830112620009ce57600080fd5b8151620009e08482602086016200089d565b91505092915050565b600082601f830112620009fb57600080fd5b815162000a0d84826020860162000902565b91505092915050565b600082601f83011262000a2857600080fd5b815162000a3a84826020860162000977565b91505092915050565b60008151905062000a548162000eb9565b92915050565b600080600080600080600080610100898b03121562000a7857600080fd5b600089015167ffffffffffffffff81111562000a9357600080fd5b62000aa18b828c01620009bc565b985050602089015167ffffffffffffffff81111562000abf57600080fd5b62000acd8b828c01620009bc565b975050604089015167ffffffffffffffff81111562000aeb57600080fd5b62000af98b828c01620009e9565b965050606089015167ffffffffffffffff81111562000b1757600080fd5b62000b258b828c01620009e9565b955050608089015167ffffffffffffffff81111562000b4357600080fd5b62000b518b828c0162000a16565b94505060a089015167ffffffffffffffff81111562000b6f57600080fd5b62000b7d8b828c0162000a16565b93505060c062000b908b828c0162000a43565b92505060e062000ba38b828c0162000a43565b9150509295985092959890939650565b600062000bc08262000d2c565b62000bcc818562000d37565b935062000bde81856020860162000daf565b62000be98162000ea8565b840191505092915050565b62000bff8162000da5565b82525050565b6000608082019050818103600083015262000c21818762000bb3565b9050818103602083015262000c37818662000bb3565b905062000c48604083018562000bf4565b818103606083015262000c5c818462000bb3565b905095945050505050565b6000604051905081810181811067ffffffffffffffff8211171562000c915762000c9062000e79565b5b8060405250919050565b600067ffffffffffffffff82111562000cb95762000cb862000e79565b5b602082029050602081019050919050565b600067ffffffffffffffff82111562000ce85762000ce762000e79565b5b602082029050602081019050919050565b600067ffffffffffffffff82111562000d175762000d1662000e79565b5b601f19601f8301169050602081019050919050565b600081519050919050565b600082825260208201905092915050565b600062000d558262000da5565b915062000d628362000da5565b9250827fffffffffffffffffffffffffffffffffffffffffffffffffffffffffffffffff0382111562000d9a5762000d9962000e1b565b5b828201905092915050565b6000819050919050565b60005b8381101562000dcf57808201518184015260208101905062000db2565b8381111562000ddf576000848401525b50505050565b6000600282049050600182168062000dfe57607f821691505b6020821081141562000e155762000e1462000e4a565b5b50919050565b7f4e487b7100000000000000000000000000000000000000000000000000000000600052601160045260246000fd5b7f4e487b7100000000000000000000000000000000000000000000000000000000600052602260045260246000fd5b7f4e487b7100000000000000000000000000000000000000000000000000000000600052604160045260246000fd5b6000601f19601f8301169050919050565b62000ec48162000da5565b811462000ed057600080fd5b50565b6147cb8062000ee36000396000f3fe608060405234801561001057600080fd5b50600436106101375760003560e01c806395d89b41116100b8578063c87b56dd1161007c578063c87b56dd14610369578063c8cf27f414610399578063d4f24c5b146103b7578063e985e9c5146103c1578063ea5012a6146103f1578063f8b81ef71461040f57610137565b806395d89b41146102bc57806398da4c95146102da578063a22cb4651461030f578063a9c326791461032b578063b88d4fde1461034d57610137565b806323b872dd116100ff57806323b872dd146101f457806342842e0e146102105780636352211e1461022c57806370a082311461025c5780637df124a11461028c57610137565b806301ffc9a71461013c5780630665f9611461016c57806306fdde031461018a578063081812fc146101a8578063095ea7b3146101d8575b600080fd5b61015660048036038101906101519190612ffd565b61042b565b6040516101639190613d83565b60405180910390f35b61017461050d565b604051610181919061411c565b60405180910390f35b610192610669565b60405161019f9190613d9e565b60405180910390f35b6101c260048036038101906101bd919061304f565b6106fb565b6040516101cf9190613cc3565b60405180910390f35b6101f260048036038101906101ed9190612fc1565b610780565b005b61020e60048036038101906102099190612ebb565b610898565b005b61022a60048036038101906102259190612ebb565b6108f8565b005b6102466004803603810190610241919061304f565b610918565b6040516102539190613cc3565b60405180910390f35b61027660048036038101906102719190612e56565b6109ca565b6040516102839190614160565b60405180910390f35b6102a660048036038101906102a19190612e56565b610a82565b6040516102b39190614160565b60405180910390f35b6102c4610a9a565b6040516102d19190613d9e565b60405180910390f35b6102f460048036038101906102ef919061304f565b610b2c565b6040516103069695949392919061417b565b60405180910390f35b61032960048036038101906103249190612f85565b610c78565b005b610333610c8e565b604051610344959493929190613e6d565b60405180910390f35b61036760048036038101906103629190612f0a565b610dc2565b005b610383600480360381019061037e919061304f565b610e24565b6040516103909190613d9e565b60405180910390f35b6103a161103f565b6040516103ae919061413e565b60405180910390f35b6103bf611217565b005b6103db60048036038101906103d69190612e7f565b6115a2565b6040516103e89190613d83565b60405180910390f35b6103f9611636565b6040516104069190613d61565b60405180910390f35b6104296004803603810190610424919061304f565b6117e1565b005b60007f80ac58cd000000000000000000000000000000000000000000000000000000007bffffffffffffffffffffffffffffffffffffffffffffffffffffffff1916827bffffffffffffffffffffffffffffffffffffffffffffffffffffffff191614806104f657507f5b5e139f000000000000000000000000000000000000000000000000000000007bffffffffffffffffffffffffffffffffffffffffffffffffffffffff1916827bffffffffffffffffffffffffffffffffffffffffffffffffffffffff1916145b80610506575061050582611c8d565b5b9050919050565b610515612c7d565b60096040518060a0016040529081600082018054610532906144cc565b80601f016020809104026020016040519081016040528092919081815260200182805461055e906144cc565b80156105ab5780601f10610580576101008083540402835291602001916105ab565b820191906000526020600020905b81548152906001019060200180831161058e57829003601f168201915b505050505081526020016001820180546105c4906144cc565b80601f01602080910402602001604051908101604052809291908181526020018280546105f0906144cc565b801561063d5780601f106106125761010080835404028352916020019161063d565b820191906000526020600020905b81548152906001019060200180831161062057829003601f168201915b505050505081526020016002820154815260200160038201548152602001600482015481525050905090565b606060008054610678906144cc565b80601f01602080910402602001604051908101604052809291908181526020018280546106a4906144cc565b80156106f15780601f106106c6576101008083540402835291602001916106f1565b820191906000526020600020905b8154815290600101906020018083116106d457829003601f168201915b5050505050905090565b600061070682611cf7565b610745576040517f08c379a000000000000000000000000000000000000000000000000000000000815260040161073c9061409c565b60405180910390fd5b6004600083815260200190815260200160002060009054906101000a900473ffffffffffffffffffffffffffffffffffffffff169050919050565b600061078b82610918565b90508073ffffffffffffffffffffffffffffffffffffffff168373ffffffffffffffffffffffffffffffffffffffff1614156107fc576040517f08c379a00000000000000000000000000000000000000000000000000000000081526004016107f3906140dc565b60405180910390fd5b8073ffffffffffffffffffffffffffffffffffffffff1661081b611d63565b73ffffffffffffffffffffffffffffffffffffffff16148061084a575061084981610844611d63565b6115a2565b5b610889576040517f08c379a000000000000000000000000000000000000000000000000000000000815260040161088090613ffc565b60405180910390fd5b6108938383611d6b565b505050565b6108a96108a3611d63565b82611e24565b6108e8576040517f08c379a00000000000000000000000000000000000000000000000000000000081526004016108df906140fc565b60405180910390fd5b6108f3838383611f02565b505050565b61091383838360405180602001604052806000815250610dc2565b505050565b6000806002600084815260200190815260200160002060009054906101000a900473ffffffffffffffffffffffffffffffffffffffff169050600073ffffffffffffffffffffffffffffffffffffffff168173ffffffffffffffffffffffffffffffffffffffff1614156109c1576040517f08c379a00000000000000000000000000000000000000000000000000000000081526004016109b89061403c565b60405180910390fd5b80915050919050565b60008073ffffffffffffffffffffffffffffffffffffffff168273ffffffffffffffffffffffffffffffffffffffff161415610a3b576040517f08c379a0000000000000000000000000000000000000000000000000000000008152600401610a329061401c565b60405180910390fd5b600360008373ffffffffffffffffffffffffffffffffffffffff1673ffffffffffffffffffffffffffffffffffffffff168152602001908152602001600020549050919050565b600e6020528060005260406000206000915090505481565b606060018054610aa9906144cc565b80601f0160208091040260200160405190810160405280929190818152602001828054610ad5906144cc565b8015610b225780601f10610af757610100808354040283529160200191610b22565b820191906000526020600020905b815481529060010190602001808311610b0557829003601f168201915b5050505050905090565b6008602052806000526040600020600091509050806000015490806001018054610b55906144cc565b80601f0160208091040260200160405190810160405280929190818152602001828054610b81906144cc565b8015610bce5780601f10610ba357610100808354040283529160200191610bce565b820191906000526020600020905b815481529060010190602001808311610bb157829003601f168201915b505050505090806002018054610be3906144cc565b80601f0160208091040260200160405190810160405280929190818152602001828054610c0f906144cc565b8015610c5c5780601f10610c3157610100808354040283529160200191610c5c565b820191906000526020600020905b815481529060010190602001808311610c3f57829003601f168201915b5050505050908060030154908060040154908060050154905086565b610c8a610c83611d63565b838361215e565b5050565b6009806000018054610c9f906144cc565b80601f0160208091040260200160405190810160405280929190818152602001828054610ccb906144cc565b8015610d185780601f10610ced57610100808354040283529160200191610d18565b820191906000526020600020905b815481529060010190602001808311610cfb57829003601f168201915b505050505090806001018054610d2d906144cc565b80601f0160208091040260200160405190810160405280929190818152602001828054610d59906144cc565b8015610da65780601f10610d7b57610100808354040283529160200191610da6565b820191906000526020600020905b815481529060010190602001808311610d8957829003601f168201915b5050505050908060020154908060030154908060040154905085565b610dd3610dcd611d63565b83611e24565b610e12576040517f08c379a0000000000000000000000000000000000000000000000000000000008152600401610e09906140fc565b60405180910390fd5b610e1e848484846122cb565b50505050565b60606000600860008481526020019081526020016000206040518060c001604052908160008201548152602001600182018054610e60906144cc565b80601f0160208091040260200160405190810160405280929190818152602001828054610e8c906144cc565b8015610ed95780601f10610eae57610100808354040283529160200191610ed9565b820191906000526020600020905b815481529060010190602001808311610ebc57829003601f168201915b50505050508152602001600282018054610ef2906144cc565b80601f0160208091040260200160405190810160405280929190818152602001828054610f1e906144cc565b8015610f6b5780601f10610f4057610100808354040283529160200191610f6b565b820191906000526020600020905b815481529060010190602001808311610f4e57829003601f168201915b50505050508152602001600382015481526020016004820154815260200160058201548152505090506000610fa38260600151612327565b90506000610fb48360800151612327565b90506000610fc58460a00151612327565b9050600061100b8560200151610fda89612327565b8760400151878787604051602001610ff796959493929190613bfc565b6040516020818303038152906040526124d4565b90506000816040516020016110209190613ca1565b6040516020818303038152906040529050809650505050505050919050565b611047612cac565b6000600e60003373ffffffffffffffffffffffffffffffffffffffff1673ffffffffffffffffffffffffffffffffffffffff168152602001908152602001600020549050600081111561120657600860008281526020019081526020016000206040518060c0016040529081600082015481526020016001820180546110cc906144cc565b80601f01602080910402602001604051908101604052809291908181526020018280546110f8906144cc565b80156111455780601f1061111a57610100808354040283529160200191611145565b820191906000526020600020905b81548152906001019060200180831161112857829003601f168201915b5050505050815260200160028201805461115e906144cc565b80601f016020809104026020016040519081016040528092919081815260200182805461118a906144cc565b80156111d75780601f106111ac576101008083540402835291602001916111d7565b820191906000526020600020905b8154815290600101906020018083116111ba57829003601f168201915b505050505081526020016003820154815260200160048201548152602001600582015481525050915050611214565b61120e612cac565b80925050505b90565b6000600e60003373ffffffffffffffffffffffffffffffffffffffff1673ffffffffffffffffffffffffffffffffffffffff168152602001908152602001600020549050600060086000838152602001908152602001600020905061132a6040518060600160405280603c815260200161475a603c913982600101805461129d906144cc565b80601f01602080910402602001604051908101604052809291908181526020018280546112c9906144cc565b80156113165780601f106112eb57610100808354040283529160200191611316565b820191906000526020600020905b8154815290600101906020018083116112f957829003601f168201915b505050505083600301548460050154612673565b6114026040518060400160405280601b81526020017f426f73732025732068617320257320485020616e64202573204144000000000081525060096000018054611373906144cc565b80601f016020809104026020016040519081016040528092919081815260200182805461139f906144cc565b80156113ec5780601f106113c1576101008083540402835291602001916113ec565b820191906000526020600020905b8154815290600101906020018083116113cf57829003601f168201915b5050505050600960020154600960040154612673565b6000816003015411611449576040517f08c379a00000000000000000000000000000000000000000000000000000000081526004016114409061405c565b60405180910390fd5b600060096002015411611491576040517f08c379a000000000000000000000000000000000000000000000000000000000815260040161148890613f5c565b60405180910390fd5b806005015460096002015410156114b25760006009600201819055506114d1565b80600501546009600201546114c791906143e2565b6009600201819055505b600960040154816003015410156114f1576000816003018190555061150f565b600960040154816003015461150691906143e2565b81600301819055505b6115366040518060600160405280602581526020016146cd60259139600960020154612715565b61155c604051806060016040528060288152602001614732602891398260030154612715565b7f838ab28464562786a6c4ab2311964b82fa60bd9b14aa7e856af1f3f18d41a41460096002015482600301546040516115969291906141ea565b60405180910390a15050565b6000600560008473ffffffffffffffffffffffffffffffffffffffff1673ffffffffffffffffffffffffffffffffffffffff16815260200190815260200160002060008373ffffffffffffffffffffffffffffffffffffffff1673ffffffffffffffffffffffffffffffffffffffff16815260200190815260200160002060009054906101000a900460ff16905092915050565b60606007805480602002602001604051908101604052809291908181526020016000905b828210156117d857838290600052602060002090600602016040518060c001604052908160008201548152602001600182018054611697906144cc565b80601f01602080910402602001604051908101604052809291908181526020018280546116c3906144cc565b80156117105780601f106116e557610100808354040283529160200191611710565b820191906000526020600020905b8154815290600101906020018083116116f357829003601f168201915b50505050508152602001600282018054611729906144cc565b80601f0160208091040260200160405190810160405280929190818152602001828054611755906144cc565b80156117a25780601f10611777576101008083540402835291602001916117a2565b820191906000526020600020905b81548152906001019060200180831161178557829003601f168201915b5050505050815260200160038201548152602001600482015481526020016005820154815250508152602001906001019061165a565b50505050905090565b60006117ed60066127b1565b90506117f933826127bf565b6040518060c0016040528083815260200160078481548110611844577f4e487b7100000000000000000000000000000000000000000000000000000000600052603260045260246000fd5b90600052602060002090600602016001018054611860906144cc565b80601f016020809104026020016040519081016040528092919081815260200182805461188c906144cc565b80156118d95780601f106118ae576101008083540402835291602001916118d9565b820191906000526020600020905b8154815290600101906020018083116118bc57829003601f168201915b505050505081526020016007848154811061191d577f4e487b7100000000000000000000000000000000000000000000000000000000600052603260045260246000fd5b90600052602060002090600602016002018054611939906144cc565b80601f0160208091040260200160405190810160405280929190818152602001828054611965906144cc565b80156119b25780601f10611987576101008083540402835291602001916119b2565b820191906000526020600020905b81548152906001019060200180831161199557829003601f168201915b50505050508152602001600784815481106119f6577f4e487b7100000000000000000000000000000000000000000000000000000000600052603260045260246000fd5b906000526020600020906006020160030154815260200160078481548110611a47577f4e487b7100000000000000000000000000000000000000000000000000000000600052603260045260246000fd5b906000526020600020906006020160040154815260200160078481548110611a98577f4e487b7100000000000000000000000000000000000000000000000000000000600052603260045260246000fd5b90600052602060002090600602016005015481525060086000838152602001908152602001600020600082015181600001556020820151816001019080519060200190611ae6929190612ce2565b506040820151816002019080519060200190611b03929190612ce2565b50606082015181600301556080820151816004015560a08201518160050155905050611b486040518060600160405280602b81526020016146a2602b913982846127dd565b80600e60003373ffffffffffffffffffffffffffffffffffffffff1673ffffffffffffffffffffffffffffffffffffffff16815260200190815260200160002081905550611b966006611c77565b7fd3c6abf8d6cb7f2155e69f76c8207a2590a57de79bfaad5526013b88966c8b6e338284604051611bc993929190613d2a565b60405180910390a15050565b611c7184848484604051602401611bef9493929190613dc0565b6040516020818303038152906040527f8d142cdd000000000000000000000000000000000000000000000000000000007bffffffffffffffffffffffffffffffffffffffffffffffffffffffff19166020820180517bffffffffffffffffffffffffffffffffffffffffffffffffffffffff838183161783525050505061287c565b50505050565b6001816000016000828254019250508190555050565b60007f01ffc9a7000000000000000000000000000000000000000000000000000000007bffffffffffffffffffffffffffffffffffffffffffffffffffffffff1916827bffffffffffffffffffffffffffffffffffffffffffffffffffffffff1916149050919050565b60008073ffffffffffffffffffffffffffffffffffffffff166002600084815260200190815260200160002060009054906101000a900473ffffffffffffffffffffffffffffffffffffffff1673ffffffffffffffffffffffffffffffffffffffff1614159050919050565b600033905090565b816004600083815260200190815260200160002060006101000a81548173ffffffffffffffffffffffffffffffffffffffff021916908373ffffffffffffffffffffffffffffffffffffffff160217905550808273ffffffffffffffffffffffffffffffffffffffff16611dde83610918565b73ffffffffffffffffffffffffffffffffffffffff167f8c5be1e5ebec7d5bd14f71427d1e84f3dd0314c0f7b2291e5b200ac8c7c3b92560405160405180910390a45050565b6000611e2f82611cf7565b611e6e576040517f08c379a0000000000000000000000000000000000000000000000000000000008152600401611e6590613fdc565b60405180910390fd5b6000611e7983610918565b90508073ffffffffffffffffffffffffffffffffffffffff168473ffffffffffffffffffffffffffffffffffffffff161480611ee857508373ffffffffffffffffffffffffffffffffffffffff16611ed0846106fb565b73ffffffffffffffffffffffffffffffffffffffff16145b80611ef95750611ef881856115a2565b5b91505092915050565b8273ffffffffffffffffffffffffffffffffffffffff16611f2282610918565b73ffffffffffffffffffffffffffffffffffffffff1614611f78576040517f08c379a0000000000000000000000000000000000000000000000000000000008152600401611f6f906140bc565b60405180910390fd5b600073ffffffffffffffffffffffffffffffffffffffff168273ffffffffffffffffffffffffffffffffffffffff161415611fe8576040517f08c379a0000000000000000000000000000000000000000000000000000000008152600401611fdf90613f9c565b60405180910390fd5b611ff38383836128a5565b611ffe600082611d6b565b6001600360008573ffffffffffffffffffffffffffffffffffffffff1673ffffffffffffffffffffffffffffffffffffffff168152602001908152602001600020600082825461204e91906143e2565b925050819055506001600360008473ffffffffffffffffffffffffffffffffffffffff1673ffffffffffffffffffffffffffffffffffffffff16815260200190815260200160002060008282546120a59190614301565b92505081905550816002600083815260200190815260200160002060006101000a81548173ffffffffffffffffffffffffffffffffffffffff021916908373ffffffffffffffffffffffffffffffffffffffff160217905550808273ffffffffffffffffffffffffffffffffffffffff168473ffffffffffffffffffffffffffffffffffffffff167fddf252ad1be2c89b69c2b068fc378daa952ba7f163c4a11628f55a4df523b3ef60405160405180910390a4505050565b8173ffffffffffffffffffffffffffffffffffffffff168373ffffffffffffffffffffffffffffffffffffffff1614156121cd576040517f08c379a00000000000000000000000000000000000000000000000000000000081526004016121c490613fbc565b60405180910390fd5b80600560008573ffffffffffffffffffffffffffffffffffffffff1673ffffffffffffffffffffffffffffffffffffffff16815260200190815260200160002060008473ffffffffffffffffffffffffffffffffffffffff1673ffffffffffffffffffffffffffffffffffffffff16815260200190815260200160002060006101000a81548160ff0219169083151502179055508173ffffffffffffffffffffffffffffffffffffffff168373ffffffffffffffffffffffffffffffffffffffff167f17307eab39ab6107e8899845ad3d59bd9653f200f220920489ca2b5937696c31836040516122be9190613d83565b60405180910390a3505050565b6122d6848484611f02565b6122e2848484846128aa565b612321576040517f08c379a000000000000000000000000000000000000000000000000000000000815260040161231890613f3c565b60405180910390fd5b50505050565b6060600082141561236f576040518060400160405280600181526020017f300000000000000000000000000000000000000000000000000000000000000081525090506124cf565b600082905060005b600082146123a157808061238a906144fe565b915050600a8261239a9190614357565b9150612377565b60008167ffffffffffffffff8111156123e3577f4e487b7100000000000000000000000000000000000000000000000000000000600052604160045260246000fd5b6040519080825280601f01601f1916602001820160405280156124155781602001600182028036833780820191505090505b5090505b600085146124c85760018261242e91906143e2565b9150600a8561243d9190614547565b60306124499190614301565b60f81b818381518110612485577f4e487b7100000000000000000000000000000000000000000000000000000000600052603260045260246000fd5b60200101907effffffffffffffffffffffffffffffffffffffffffffffffffffffffffffff1916908160001a905350600a856124c19190614357565b9450612419565b8093505050505b919050565b60606000825114156124f75760405180602001604052806000815250905061266e565b60006040518060600160405280604081526020016146f260409139905060006003600285516125269190614301565b6125309190614357565b600461253c9190614388565b9050600060208261254d9190614301565b67ffffffffffffffff81111561258c577f4e487b7100000000000000000000000000000000000000000000000000000000600052604160045260246000fd5b6040519080825280601f01601f1916602001820160405280156125be5781602001600182028036833780820191505090505b509050818152600183018586518101602084015b8183101561262d576003830192508251603f8160121c168501518253600182019150603f81600c1c168501518253600182019150603f8160061c168501518253600182019150603f81168501518253600182019150506125d2565b600389510660018114612647576002811461265757612662565b613d3d60f01b6002830352612662565b603d60f81b60018303525b50505050508093505050505b919050565b61270f8484848460405160240161268d9493929190613e1a565b6040516020818303038152906040527fd5cf17d0000000000000000000000000000000000000000000000000000000007bffffffffffffffffffffffffffffffffffffffffffffffffffffffff19166020820180517bffffffffffffffffffffffffffffffffffffffffffffffffffffffff838183161783525050505061287c565b50505050565b6127ad828260405160240161272b929190613ece565b6040516020818303038152906040527f9710a9d0000000000000000000000000000000000000000000000000000000007bffffffffffffffffffffffffffffffffffffffffffffffffffffffff19166020820180517bffffffffffffffffffffffffffffffffffffffffffffffffffffffff838183161783525050505061287c565b5050565b600081600001549050919050565b6127d9828260405180602001604052806000815250612a41565b5050565b6128778383836040516024016127f593929190613efe565b6040516020818303038152906040527f969cdd03000000000000000000000000000000000000000000000000000000007bffffffffffffffffffffffffffffffffffffffffffffffffffffffff19166020820180517bffffffffffffffffffffffffffffffffffffffffffffffffffffffff838183161783525050505061287c565b505050565b60008151905060006a636f6e736f6c652e6c6f679050602083016000808483855afa5050505050565b505050565b60006128cb8473ffffffffffffffffffffffffffffffffffffffff16612a9c565b15612a34578373ffffffffffffffffffffffffffffffffffffffff1663150b7a026128f4611d63565b8786866040518563ffffffff1660e01b81526004016129169493929190613cde565b602060405180830381600087803b15801561293057600080fd5b505af192505050801561296157506040513d601f19601f8201168201806040525081019061295e9190613026565b60015b6129e4573d8060008114612991576040519150601f19603f3d011682016040523d82523d6000602084013e612996565b606091505b506000815114156129dc576040517f08c379a00000000000000000000000000000000000000000000000000000000081526004016129d390613f3c565b60405180910390fd5b805181602001fd5b63150b7a0260e01b7bffffffffffffffffffffffffffffffffffffffffffffffffffffffff1916817bffffffffffffffffffffffffffffffffffffffffffffffffffffffff191614915050612a39565b600190505b949350505050565b612a4b8383612aaf565b612a5860008484846128aa565b612a97576040517f08c379a0000000000000000000000000000000000000000000000000000000008152600401612a8e90613f3c565b60405180910390fd5b505050565b600080823b905060008111915050919050565b600073ffffffffffffffffffffffffffffffffffffffff168273ffffffffffffffffffffffffffffffffffffffff161415612b1f576040517f08c379a0000000000000000000000000000000000000000000000000000000008152600401612b169061407c565b60405180910390fd5b612b2881611cf7565b15612b68576040517f08c379a0000000000000000000000000000000000000000000000000000000008152600401612b5f90613f7c565b60405180910390fd5b612b74600083836128a5565b6001600360008473ffffffffffffffffffffffffffffffffffffffff1673ffffffffffffffffffffffffffffffffffffffff1681526020019081526020016000206000828254612bc49190614301565b92505081905550816002600083815260200190815260200160002060006101000a81548173ffffffffffffffffffffffffffffffffffffffff021916908373ffffffffffffffffffffffffffffffffffffffff160217905550808273ffffffffffffffffffffffffffffffffffffffff16600073ffffffffffffffffffffffffffffffffffffffff167fddf252ad1be2c89b69c2b068fc378daa952ba7f163c4a11628f55a4df523b3ef60405160405180910390a45050565b6040518060a0016040528060608152602001606081526020016000815260200160008152602001600081525090565b6040518060c001604052806000815260200160608152602001606081526020016000815260200160008152602001600081525090565b828054612cee906144cc565b90600052602060002090601f016020900481019282612d105760008555612d57565b82601f10612d2957805160ff1916838001178555612d57565b82800160010185558215612d57579182015b82811115612d56578251825591602001919060010190612d3b565b5b509050612d649190612d68565b5090565b5b80821115612d81576000816000905550600101612d69565b5090565b6000612d98612d9384614244565b614213565b905082815260208101848484011115612db057600080fd5b612dbb84828561448a565b509392505050565b600081359050612dd281614645565b92915050565b600081359050612de78161465c565b92915050565b600081359050612dfc81614673565b92915050565b600081519050612e1181614673565b92915050565b600082601f830112612e2857600080fd5b8135612e38848260208601612d85565b91505092915050565b600081359050612e508161468a565b92915050565b600060208284031215612e6857600080fd5b6000612e7684828501612dc3565b91505092915050565b60008060408385031215612e9257600080fd5b6000612ea085828601612dc3565b9250506020612eb185828601612dc3565b9150509250929050565b600080600060608486031215612ed057600080fd5b6000612ede86828701612dc3565b9350506020612eef86828701612dc3565b9250506040612f0086828701612e41565b9150509250925092565b60008060008060808587031215612f2057600080fd5b6000612f2e87828801612dc3565b9450506020612f3f87828801612dc3565b9350506040612f5087828801612e41565b925050606085013567ffffffffffffffff811115612f6d57600080fd5b612f7987828801612e17565b91505092959194509250565b60008060408385031215612f9857600080fd5b6000612fa685828601612dc3565b9250506020612fb785828601612dd8565b9150509250929050565b60008060408385031215612fd457600080fd5b6000612fe285828601612dc3565b9250506020612ff385828601612e41565b9150509250929050565b60006020828403121561300f57600080fd5b600061301d84828501612ded565b91505092915050565b60006020828403121561303857600080fd5b600061304684828501612e02565b91505092915050565b60006020828403121561306157600080fd5b600061306f84828501612e41565b91505092915050565b60006130848383613abe565b905092915050565b61309581614416565b82525050565b60006130a682614284565b6130b081856142b2565b9350836020820285016130c285614274565b8060005b858110156130fe57848403895281516130df8582613078565b94506130ea836142a5565b925060208a019950506001810190506130c6565b50829750879550505050505092915050565b61311981614428565b82525050565b600061312a8261428f565b61313481856142c3565b9350613144818560208601614499565b61314d81614634565b840191505092915050565b60006131638261429a565b61316d81856142d4565b935061317d818560208601614499565b61318681614634565b840191505092915050565b600061319c8261429a565b6131a681856142e5565b93506131b6818560208601614499565b6131bf81614634565b840191505092915050565b60006131d58261429a565b6131df81856142f6565b93506131ef818560208601614499565b80840191505092915050565b6000613208600b836142f6565b91507f202d2d204e465420233a200000000000000000000000000000000000000000006000830152600b82019050919050565b60006132486032836142e5565b91507f4552433732313a207472616e7366657220746f206e6f6e20455243373231526560008301527f63656976657220696d706c656d656e74657200000000000000000000000000006020830152604082019050919050565b60006132ae6028836142e5565b91507f4572726f723a20626f7373206d757374206861766520485020746f206174746160008301527f636b20626f73732e0000000000000000000000000000000000000000000000006020830152604082019050919050565b6000613314601c836142e5565b91507f4552433732313a20746f6b656e20616c7265616479206d696e746564000000006000830152602082019050919050565b6000613354600e836142f6565b91507f2c20226d61785f76616c7565223a0000000000000000000000000000000000006000830152600e82019050919050565b60006133946024836142e5565b91507f4552433732313a207472616e7366657220746f20746865207a65726f2061646460008301527f72657373000000000000000000000000000000000000000000000000000000006020830152604082019050919050565b60006133fa6019836142e5565b91507f4552433732313a20617070726f766520746f2063616c6c6572000000000000006000830152602082019050919050565b600061343a602c836142e5565b91507f4552433732313a206f70657261746f7220717565727920666f72206e6f6e657860008301527f697374656e7420746f6b656e00000000000000000000000000000000000000006020830152604082019050919050565b60006134a06038836142e5565b91507f4552433732313a20617070726f76652063616c6c6572206973206e6f74206f7760008301527f6e6572206e6f7220617070726f76656420666f7220616c6c00000000000000006020830152604082019050919050565b6000613506602a836142e5565b91507f4552433732313a2062616c616e636520717565727920666f7220746865207a6560008301527f726f2061646472657373000000000000000000000000000000000000000000006020830152604082019050919050565b600061356c6029836142e5565b91507f4552433732313a206f776e657220717565727920666f72206e6f6e657869737460008301527f656e7420746f6b656e00000000000000000000000000000000000000000000006020830152604082019050919050565b60006135d26069836142f6565b91507f222c20226465736372697074696f6e223a20225468697320697320616e204e4660008301527f542074686174206c6574732070656f706c6520706c617920696e20746865206760208301527f616d65205361766520746865204d756c74694d657461766572736521222c202260408301527f696d616765223a202200000000000000000000000000000000000000000000006060830152606982019050919050565b6000613684602d836142e5565b91507f4572726f723a20636861726163746572206d757374206861766520485020746f60008301527f2061747461636b20626f73732e000000000000000000000000000000000000006020830152604082019050919050565b60006136ea6004836142f6565b91507f7d205d7d000000000000000000000000000000000000000000000000000000006000830152600482019050919050565b600061372a6020836142e5565b91507f4552433732313a206d696e7420746f20746865207a65726f20616464726573736000830152602082019050919050565b600061376a602c836142e5565b91507f4552433732313a20617070726f76656420717565727920666f72206e6f6e657860008301527f697374656e7420746f6b656e00000000000000000000000000000000000000006020830152604082019050919050565b60006137d06029836142e5565b91507f4552433732313a207472616e73666572206f6620746f6b656e2074686174206960008301527f73206e6f74206f776e00000000000000000000000000000000000000000000006020830152604082019050919050565b6000613836600a836142f6565b91507f7b226e616d65223a2022000000000000000000000000000000000000000000006000830152600a82019050919050565b60006138766021836142e5565b91507f4552433732313a20617070726f76616c20746f2063757272656e74206f776e6560008301527f72000000000000000000000000000000000000000000000000000000000000006020830152604082019050919050565b60006138dc601d836142f6565b91507f646174613a6170706c69636174696f6e2f6a736f6e3b6261736536342c0000006000830152601d82019050919050565b600061391c6031836142e5565b91507f4552433732313a207472616e736665722063616c6c6572206973206e6f74206f60008301527f776e6572206e6f7220617070726f7665640000000000000000000000000000006020830152604082019050919050565b6000613982603d836142f6565b91507f222c202261747472696275746573223a205b207b202274726169745f7479706560008301527f223a20224865616c746820506f696e7473222c202276616c7565223a200000006020830152603d82019050919050565b60006139e8602d836142f6565b91507f7d2c207b202274726169745f74797065223a202241747461636b2044616d616760008301527f65222c202276616c7565223a20000000000000000000000000000000000000006020830152602d82019050919050565b600060a0830160008301518482036000860152613a5e8282613158565b91505060208301518482036020860152613a788282613158565b9150506040830151613a8d6040860182613bde565b506060830151613aa06060860182613bde565b506080830151613ab36080860182613bde565b508091505092915050565b600060c083016000830151613ad66000860182613bde565b5060208301518482036020860152613aee8282613158565b91505060408301518482036040860152613b088282613158565b9150506060830151613b1d6060860182613bde565b506080830151613b306080860182613bde565b5060a0830151613b4360a0860182613bde565b508091505092915050565b600060c083016000830151613b666000860182613bde565b5060208301518482036020860152613b7e8282613158565b91505060408301518482036040860152613b988282613158565b9150506060830151613bad6060860182613bde565b506080830151613bc06080860182613bde565b5060a0830151613bd360a0860182613bde565b508091505092915050565b613be781614480565b82525050565b613bf681614480565b82525050565b6000613c0782613829565b9150613c1382896131ca565b9150613c1e826131fb565b9150613c2a82886131ca565b9150613c35826135c5565b9150613c4182876131ca565b9150613c4c82613975565b9150613c5882866131ca565b9150613c6382613347565b9150613c6f82856131ca565b9150613c7a826139db565b9150613c8682846131ca565b9150613c91826136dd565b9150819050979650505050505050565b6000613cac826138cf565b9150613cb882846131ca565b915081905092915050565b6000602082019050613cd8600083018461308c565b92915050565b6000608082019050613cf3600083018761308c565b613d00602083018661308c565b613d0d6040830185613bed565b8181036060830152613d1f818461311f565b905095945050505050565b6000606082019050613d3f600083018661308c565b613d4c6020830185613bed565b613d596040830184613bed565b949350505050565b60006020820190508181036000830152613d7b818461309b565b905092915050565b6000602082019050613d986000830184613110565b92915050565b60006020820190508181036000830152613db88184613191565b905092915050565b60006080820190508181036000830152613dda8187613191565b90508181036020830152613dee8186613191565b9050613dfd6040830185613bed565b8181036060830152613e0f8184613191565b905095945050505050565b60006080820190508181036000830152613e348187613191565b90508181036020830152613e488186613191565b9050613e576040830185613bed565b613e646060830184613bed565b95945050505050565b600060a0820190508181036000830152613e878188613191565b90508181036020830152613e9b8187613191565b9050613eaa6040830186613bed565b613eb76060830185613bed565b613ec46080830184613bed565b9695505050505050565b60006040820190508181036000830152613ee88185613191565b9050613ef76020830184613bed565b9392505050565b60006060820190508181036000830152613f188186613191565b9050613f276020830185613bed565b613f346040830184613bed565b949350505050565b60006020820190508181036000830152613f558161323b565b9050919050565b60006020820190508181036000830152613f75816132a1565b9050919050565b60006020820190508181036000830152613f9581613307565b9050919050565b60006020820190508181036000830152613fb581613387565b9050919050565b60006020820190508181036000830152613fd5816133ed565b9050919050565b60006020820190508181036000830152613ff58161342d565b9050919050565b6000602082019050818103600083015261401581613493565b9050919050565b60006020820190508181036000830152614035816134f9565b9050919050565b600060208201905081810360008301526140558161355f565b9050919050565b6000602082019050818103600083015261407581613677565b9050919050565b600060208201905081810360008301526140958161371d565b9050919050565b600060208201905081810360008301526140b58161375d565b9050919050565b600060208201905081810360008301526140d5816137c3565b9050919050565b600060208201905081810360008301526140f581613869565b9050919050565b600060208201905081810360008301526141158161390f565b9050919050565b600060208201905081810360008301526141368184613a41565b905092915050565b600060208201905081810360008301526141588184613b4e565b905092915050565b60006020820190506141756000830184613bed565b92915050565b600060c0820190506141906000830189613bed565b81810360208301526141a28188613191565b905081810360408301526141b68187613191565b90506141c56060830186613bed565b6141d26080830185613bed565b6141df60a0830184613bed565b979650505050505050565b60006040820190506141ff6000830185613bed565b61420c6020830184613bed565b9392505050565b6000604051905081810181811067ffffffffffffffff8211171561423a57614239614605565b5b8060405250919050565b600067ffffffffffffffff82111561425f5761425e614605565b5b601f19601f8301169050602081019050919050565b6000819050602082019050919050565b600081519050919050565b600081519050919050565b600081519050919050565b6000602082019050919050565b600082825260208201905092915050565b600082825260208201905092915050565b600082825260208201905092915050565b600082825260208201905092915050565b600081905092915050565b600061430c82614480565b915061431783614480565b9250827fffffffffffffffffffffffffffffffffffffffffffffffffffffffffffffffff0382111561434c5761434b614578565b5b828201905092915050565b600061436282614480565b915061436d83614480565b92508261437d5761437c6145a7565b5b828204905092915050565b600061439382614480565b915061439e83614480565b9250817fffffffffffffffffffffffffffffffffffffffffffffffffffffffffffffffff04831182151516156143d7576143d6614578565b5b828202905092915050565b60006143ed82614480565b91506143f883614480565b92508282101561440b5761440a614578565b5b828203905092915050565b600061442182614460565b9050919050565b60008115159050919050565b60007fffffffff0000000000000000000000000000000000000000000000000000000082169050919050565b600073ffffffffffffffffffffffffffffffffffffffff82169050919050565b6000819050919050565b82818337600083830152505050565b60005b838110156144b757808201518184015260208101905061449c565b838111156144c6576000848401525b50505050565b600060028204905060018216806144e457607f821691505b602082108114156144f8576144f76145d6565b5b50919050565b600061450982614480565b91507fffffffffffffffffffffffffffffffffffffffffffffffffffffffffffffffff82141561453c5761453b614578565b5b600182019050919050565b600061455282614480565b915061455d83614480565b92508261456d5761456c6145a7565b5b828206905092915050565b7f4e487b7100000000000000000000000000000000000000000000000000000000600052601160045260246000fd5b7f4e487b7100000000000000000000000000000000000000000000000000000000600052601260045260246000fd5b7f4e487b7100000000000000000000000000000000000000000000000000000000600052602260045260246000fd5b7f4e487b7100000000000000000000000000000000000000000000000000000000600052604160045260246000fd5b6000601f19601f8301169050919050565b61464e81614416565b811461465957600080fd5b50565b61466581614428565b811461467057600080fd5b50565b61467c81614434565b811461468757600080fd5b50565b61469381614480565b811461469e57600080fd5b5056fe4d696e746564204e465420772f20746f6b656e496420257320616e6420776561706f6e496e646578202573506c617965722061747461636b656420626f73732e204e657720626f73732068703a2025734142434445464748494a4b4c4d4e4f505152535455565758595a6162636465666768696a6b6c6d6e6f707172737475767778797a303132333435363738392b2f426f73732061747461636b656420706c617965722e204e657720706c617965722068703a2025730a0a506c6179657220772f206368617261637465722025732061626f757420746f2061747461636b2e2048617320257320485020616e64202573204144a26469706673582212207b8204a8998e205386c0a70e881663bf87383579fdfcc7bff235abb2f418417264736f6c63430008000033446f6e6520696e697469616c697a696e6720257320772f2048502025732c20696d67202573446f6e6520696e697469616c697a696e6720626f737320257320772f2048502025732c20696d67202573",
  "linkReferences": {},
  "deployedLinkReferences": {}
}