{
  "_format": "hh-sol-artifact-1",
  "contractName": "MyEpicGame",
  "sourceName": "contracts/MyEpicGame.sol",
  "abi": [
    {
      "inputs": [
        {
          "internalType": "string[]",
          "name": "weaponNames",
          "type": "string[]"
        },
        {
          "internalType": "string[]",
          "name": "weaponImagesURIs",
          "type": "string[]"
        },
        {
          "internalType": "uint256[]",
          "name": "weaponHp",
          "type": "uint256[]"
        },
        {
          "internalType": "uint256[]",
          "name": "weaponAttackDmg",
          "type": "uint256[]"
        },
        {
          "internalType": "string",
          "name": "bossName",
          "type": "string"
        },
        {
          "internalType": "string",
          "name": "bossImageURI",
          "type": "string"
        },
        {
          "internalType": "uint256",
          "name": "bossHp",
          "type": "uint256"
        },
        {
          "internalType": "uint256",
          "name": "bossAttackDamage",
          "type": "uint256"
        }
      ],
      "stateMutability": "nonpayable",
      "type": "constructor"
    },
    {
      "anonymous": false,
      "inputs": [
        {
          "indexed": true,
          "internalType": "address",
          "name": "owner",
          "type": "address"
        },
        {
          "indexed": true,
          "internalType": "address",
          "name": "approved",
          "type": "address"
        },
        {
          "indexed": true,
          "internalType": "uint256",
          "name": "tokenId",
          "type": "uint256"
        }
      ],
      "name": "Approval",
      "type": "event"
    },
    {
      "anonymous": false,
      "inputs": [
        {
          "indexed": true,
          "internalType": "address",
          "name": "owner",
          "type": "address"
        },
        {
          "indexed": true,
          "internalType": "address",
          "name": "operator",
          "type": "address"
        },
        {
          "indexed": false,
          "internalType": "bool",
          "name": "approved",
          "type": "bool"
        }
      ],
      "name": "ApprovalForAll",
      "type": "event"
    },
    {
      "anonymous": false,
      "inputs": [
        {
          "indexed": false,
          "internalType": "uint256",
          "name": "newBossHp",
          "type": "uint256"
        },
        {
          "indexed": false,
          "internalType": "uint256",
          "name": "newPlayerHp",
          "type": "uint256"
        }
      ],
      "name": "AttackComplete",
      "type": "event"
    },
    {
      "anonymous": false,
      "inputs": [
        {
          "indexed": false,
          "internalType": "address",
          "name": "sender",
          "type": "address"
        },
        {
          "indexed": false,
          "internalType": "uint256",
          "name": "tokenId",
          "type": "uint256"
        },
        {
          "indexed": false,
          "internalType": "uint256",
          "name": "characterIndex",
          "type": "uint256"
        }
      ],
      "name": "CharacterNFTMinted",
      "type": "event"
    },
    {
      "anonymous": false,
      "inputs": [
        {
          "indexed": true,
          "internalType": "address",
          "name": "from",
          "type": "address"
        },
        {
          "indexed": true,
          "internalType": "address",
          "name": "to",
          "type": "address"
        },
        {
          "indexed": true,
          "internalType": "uint256",
          "name": "tokenId",
          "type": "uint256"
        }
      ],
      "name": "Transfer",
      "type": "event"
    },
    {
      "inputs": [
        {
          "internalType": "address",
          "name": "to",
          "type": "address"
        },
        {
          "internalType": "uint256",
          "name": "tokenId",
          "type": "uint256"
        }
      ],
      "name": "approve",
      "outputs": [],
      "stateMutability": "nonpayable",
      "type": "function"
    },
    {
      "inputs": [],
      "name": "attackBoss",
      "outputs": [],
      "stateMutability": "nonpayable",
      "type": "function"
    },
    {
      "inputs": [
        {
          "internalType": "address",
          "name": "owner",
          "type": "address"
        }
      ],
      "name": "balanceOf",
      "outputs": [
        {
          "internalType": "uint256",
          "name": "",
          "type": "uint256"
        }
      ],
      "stateMutability": "view",
      "type": "function"
    },
    {
      "inputs": [],
      "name": "bigBoss",
      "outputs": [
        {
          "internalType": "string",
          "name": "name",
          "type": "string"
        },
        {
          "internalType": "string",
          "name": "imageURI",
          "type": "string"
        },
        {
          "internalType": "uint256",
          "name": "hp",
          "type": "uint256"
        },
        {
          "internalType": "uint256",
          "name": "maxHp",
          "type": "uint256"
        },
        {
          "internalType": "uint256",
          "name": "attackDamage",
          "type": "uint256"
        }
      ],
      "stateMutability": "view",
      "type": "function"
    },
    {
      "inputs": [],
      "name": "checkIfUserHasNFT",
      "outputs": [
        {
          "components": [
            {
              "internalType": "uint256",
              "name": "weaponIndex",
              "type": "uint256"
            },
            {
              "internalType": "string",
              "name": "name",
              "type": "string"
            },
            {
              "internalType": "string",
              "name": "imageURI",
              "type": "string"
            },
            {
              "internalType": "uint256",
              "name": "hp",
              "type": "uint256"
            },
            {
              "internalType": "uint256",
              "name": "maxHp",
              "type": "uint256"
            },
            {
              "internalType": "uint256",
              "name": "attackDamage",
              "type": "uint256"
            }
          ],
          "internalType": "struct MyEpicGame.WeaponAttributes",
          "name": "",
          "type": "tuple"
        }
      ],
      "stateMutability": "view",
      "type": "function"
    },
    {
      "inputs": [],
      "name": "getAllDefaultCharacters",
      "outputs": [
        {
          "components": [
            {
              "internalType": "uint256",
              "name": "weaponIndex",
              "type": "uint256"
            },
            {
              "internalType": "string",
              "name": "name",
              "type": "string"
            },
            {
              "internalType": "string",
              "name": "imageURI",
              "type": "string"
            },
            {
              "internalType": "uint256",
              "name": "hp",
              "type": "uint256"
            },
            {
              "internalType": "uint256",
              "name": "maxHp",
              "type": "uint256"
            },
            {
              "internalType": "uint256",
              "name": "attackDamage",
              "type": "uint256"
            }
          ],
          "internalType": "struct MyEpicGame.WeaponAttributes[]",
          "name": "",
          "type": "tuple[]"
        }
      ],
      "stateMutability": "view",
      "type": "function"
    },
    {
      "inputs": [
        {
          "internalType": "uint256",
          "name": "tokenId",
          "type": "uint256"
        }
      ],
      "name": "getApproved",
      "outputs": [
        {
          "internalType": "address",
          "name": "",
          "type": "address"
        }
      ],
      "stateMutability": "view",
      "type": "function"
    },
    {
      "inputs": [],
      "name": "getBigBoss",
      "outputs": [
        {
          "components": [
            {
              "internalType": "string",
              "name": "name",
              "type": "string"
            },
            {
              "internalType": "string",
              "name": "imageURI",
              "type": "string"
            },
            {
              "internalType": "uint256",
              "name": "hp",
              "type": "uint256"
            },
            {
              "internalType": "uint256",
              "name": "maxHp",
              "type": "uint256"
            },
            {
              "internalType": "uint256",
              "name": "attackDamage",
              "type": "uint256"
            }
          ],
          "internalType": "struct MyEpicGame.BigBoss",
          "name": "",
          "type": "tuple"
        }
      ],
      "stateMutability": "view",
      "type": "function"
    },
    {
      "inputs": [
        {
          "internalType": "address",
          "name": "owner",
          "type": "address"
        },
        {
          "internalType": "address",
          "name": "operator",
          "type": "address"
        }
      ],
      "name": "isApprovedForAll",
      "outputs": [
        {
          "internalType": "bool",
          "name": "",
          "type": "bool"
        }
      ],
      "stateMutability": "view",
      "type": "function"
    },
    {
      "inputs": [
        {
          "internalType": "uint256",
          "name": "_weaponIndex",
          "type": "uint256"
        }
      ],
      "name": "mintWeaponNFT",
      "outputs": [],
      "stateMutability": "nonpayable",
      "type": "function"
    },
    {
      "inputs": [],
      "name": "name",
      "outputs": [
        {
          "internalType": "string",
          "name": "",
          "type": "string"
        }
      ],
      "stateMutability": "view",
      "type": "function"
    },
    {
      "inputs": [
        {
          "internalType": "uint256",
          "name": "",
          "type": "uint256"
        }
      ],
      "name": "nftHolderAttributes",
      "outputs": [
        {
          "internalType": "uint256",
          "name": "weaponIndex",
          "type": "uint256"
        },
        {
          "internalType": "string",
          "name": "name",
          "type": "string"
        },
        {
          "internalType": "string",
          "name": "imageURI",
          "type": "string"
        },
        {
          "internalType": "uint256",
          "name": "hp",
          "type": "uint256"
        },
        {
          "internalType": "uint256",
          "name": "maxHp",
          "type": "uint256"
        },
        {
          "internalType": "uint256",
          "name": "attackDamage",
          "type": "uint256"
        }
      ],
      "stateMutability": "view",
      "type": "function"
    },
    {
      "inputs": [
        {
          "internalType": "address",
          "name": "",
          "type": "address"
        }
      ],
      "name": "nftHolders",
      "outputs": [
        {
          "internalType": "uint256",
          "name": "",
          "type": "uint256"
        }
      ],
      "stateMutability": "view",
      "type": "function"
    },
    {
      "inputs": [
        {
          "internalType": "uint256",
          "name": "tokenId",
          "type": "uint256"
        }
      ],
      "name": "ownerOf",
      "outputs": [
        {
          "internalType": "address",
          "name": "",
          "type": "address"
        }
      ],
      "stateMutability": "view",
      "type": "function"
    },
    {
      "inputs": [
        {
          "internalType": "address",
          "name": "from",
          "type": "address"
        },
        {
          "internalType": "address",
          "name": "to",
          "type": "address"
        },
        {
          "internalType": "uint256",
          "name": "tokenId",
          "type": "uint256"
        }
      ],
      "name": "safeTransferFrom",
      "outputs": [],
      "stateMutability": "nonpayable",
      "type": "function"
    },
    {
      "inputs": [
        {
          "internalType": "address",
          "name": "from",
          "type": "address"
        },
        {
          "internalType": "address",
          "name": "to",
          "type": "address"
        },
        {
          "internalType": "uint256",
          "name": "tokenId",
          "type": "uint256"
        },
        {
          "internalType": "bytes",
          "name": "_data",
          "type": "bytes"
        }
      ],
      "name": "safeTransferFrom",
      "outputs": [],
      "stateMutability": "nonpayable",
      "type": "function"
    },
    {
      "inputs": [
        {
          "internalType": "address",
          "name": "operator",
          "type": "address"
        },
        {
          "internalType": "bool",
          "name": "approved",
          "type": "bool"
        }
      ],
      "name": "setApprovalForAll",
      "outputs": [],
      "stateMutability": "nonpayable",
      "type": "function"
    },
    {
      "inputs": [
        {
          "internalType": "bytes4",
          "name": "interfaceId",
          "type": "bytes4"
        }
      ],
      "name": "supportsInterface",
      "outputs": [
        {
          "internalType": "bool",
          "name": "",
          "type": "bool"
        }
      ],
      "stateMutability": "view",
      "type": "function"
    },
    {
      "inputs": [],
      "name": "symbol",
      "outputs": [
        {
          "internalType": "string",
          "name": "",
          "type": "string"
        }
      ],
      "stateMutability": "view",
      "type": "function"
    },
    {
      "inputs": [
        {
          "internalType": "uint256",
          "name": "_tokenId",
          "type": "uint256"
        }
      ],
      "name": "tokenURI",
      "outputs": [
        {
          "internalType": "string",
          "name": "",
          "type": "string"
        }
      ],
      "stateMutability": "view",
      "type": "function"
    },
    {
      "inputs": [
        {
          "internalType": "address",
          "name": "from",
          "type": "address"
        },
        {
          "internalType": "address",
          "name": "to",
          "type": "address"
        },
        {
          "internalType": "uint256",
          "name": "tokenId",
          "type": "uint256"
        }
      ],
      "name": "transferFrom",
      "outputs": [],
      "stateMutability": "nonpayable",
      "type": "function"
    }
  ],
  "bytecode": "0x60806040523480156200001157600080fd5b506040516200561c3803806200561c8339818101604052810190620000379190620009d8565b6040518060400160405280600781526020017f576561706f6e73000000000000000000000000000000000000000000000000008152506040518060400160405280600381526020017f57504e00000000000000000000000000000000000000000000000000000000008152508160009080519060200190620000bb9291906200076b565b508060019080519060200190620000d49291906200076b565b50505060005b88518110156200050a5760066040518060c001604052808381526020018b848151811062000131577f4e487b7100000000000000000000000000000000000000000000000000000000600052603260045260246000fd5b602002602001015181526020018a848151811062000178577f4e487b7100000000000000000000000000000000000000000000000000000000600052603260045260246000fd5b60200260200101518152602001898481518110620001bf577f4e487b7100000000000000000000000000000000000000000000000000000000600052603260045260246000fd5b6020026020010151815260200189848151811062000206577f4e487b7100000000000000000000000000000000000000000000000000000000600052603260045260246000fd5b602002602001015181526020018884815181106200024d577f4e487b7100000000000000000000000000000000000000000000000000000000600052603260045260246000fd5b60200260200101518152509080600181540180825580915050600190039060005260206000209060060201600090919091909150600082015181600001556020820151816001019080519060200190620002a99291906200076b565b506040820151816002019080519060200190620002c89291906200076b565b50606082015181600301556080820151816004015560a08201518160050155505060006006828154811062000326577f4e487b7100000000000000000000000000000000000000000000000000000000600052603260045260246000fd5b90600052602060002090600602016040518060c0016040529081600082015481526020016001820180546200035b9062000d4c565b80601f0160208091040260200160405190810160405280929190818152602001828054620003899062000d4c565b8015620003da5780601f10620003ae57610100808354040283529160200191620003da565b820191906000526020600020905b815481529060010190602001808311620003bc57829003601f168201915b50505050508152602001600282018054620003f59062000d4c565b80601f0160208091040260200160405190810160405280929190818152602001828054620004239062000d4c565b8015620004745780601f10620004485761010080835404028352916020019162000474565b820191906000526020600020905b8154815290600101906020018083116200045657829003601f168201915b5050505050815260200160038201548152602001600482015481526020016005820154815250509050620004f26040518060400160405280601d81526020017f446f6e6520696e697469616c697a696e6720257320772f204850202573000000815250826020015183606001516200068360201b62001bd51760201c565b5060018162000502919062000caf565b9050620000da565b506200052260076200072c60201b62001c741760201c565b6040518060a0016040528085815260200184815260200183815260200183815260200182815250600a6000820151816000019080519060200190620005699291906200076b565b506020820151816001019080519060200190620005889291906200076b565b5060408201518160020155606082015181600301556080820151816004015590505062000675604051806060016040528060228152602001620055fa60229139600a6000018054620005da9062000d4c565b80601f0160208091040260200160405190810160405280929190818152602001828054620006089062000d4c565b8015620006595780601f106200062d5761010080835404028352916020019162000659565b820191906000526020600020905b8154815290600101906020018083116200063b57829003601f168201915b5050505050600a600201546200068360201b62001bd51760201c565b505050505050505062000e3a565b620007278383836040516024016200069e9392919062000b83565b6040516020818303038152906040527ff362ca59000000000000000000000000000000000000000000000000000000007bffffffffffffffffffffffffffffffffffffffffffffffffffffffff19166020820180517bffffffffffffffffffffffffffffffffffffffffffffffffffffffff83818316178352505050506200074260201b60201c565b505050565b6001816000016000828254019250508190555050565b60008151905060006a636f6e736f6c652e6c6f679050602083016000808483855afa5050505050565b828054620007799062000d4c565b90600052602060002090601f0160209004810192826200079d5760008555620007e9565b82601f10620007b857805160ff1916838001178555620007e9565b82800160010185558215620007e9579182015b82811115620007e8578251825591602001919060010190620007cb565b5b509050620007f89190620007fc565b5090565b5b8082111562000817576000816000905550600101620007fd565b5090565b6000620008326200082c8462000c02565b62000bce565b9050808382526020820190508260005b858110156200087657815185016200085b888262000994565b84526020840193506020830192505060018101905062000842565b5050509392505050565b600062000897620008918462000c31565b62000bce565b90508083825260208201905082856020860282011115620008b757600080fd5b60005b85811015620008eb5781620008d08882620009c1565b845260208401935060208301925050600181019050620008ba565b5050509392505050565b60006200090c620009068462000c60565b62000bce565b9050828152602081018484840111156200092557600080fd5b6200093284828562000d16565b509392505050565b600082601f8301126200094c57600080fd5b81516200095e8482602086016200081b565b91505092915050565b600082601f8301126200097957600080fd5b81516200098b84826020860162000880565b91505092915050565b600082601f830112620009a657600080fd5b8151620009b8848260208601620008f5565b91505092915050565b600081519050620009d28162000e20565b92915050565b600080600080600080600080610100898b031215620009f657600080fd5b600089015167ffffffffffffffff81111562000a1157600080fd5b62000a1f8b828c016200093a565b985050602089015167ffffffffffffffff81111562000a3d57600080fd5b62000a4b8b828c016200093a565b975050604089015167ffffffffffffffff81111562000a6957600080fd5b62000a778b828c0162000967565b965050606089015167ffffffffffffffff81111562000a9557600080fd5b62000aa38b828c0162000967565b955050608089015167ffffffffffffffff81111562000ac157600080fd5b62000acf8b828c0162000994565b94505060a089015167ffffffffffffffff81111562000aed57600080fd5b62000afb8b828c0162000994565b93505060c062000b0e8b828c01620009c1565b92505060e062000b218b828c01620009c1565b9150509295985092959890939650565b600062000b3e8262000c93565b62000b4a818562000c9e565b935062000b5c81856020860162000d16565b62000b678162000e0f565b840191505092915050565b62000b7d8162000d0c565b82525050565b6000606082019050818103600083015262000b9f818662000b31565b9050818103602083015262000bb5818562000b31565b905062000bc6604083018462000b72565b949350505050565b6000604051905081810181811067ffffffffffffffff8211171562000bf85762000bf762000de0565b5b8060405250919050565b600067ffffffffffffffff82111562000c205762000c1f62000de0565b5b602082029050602081019050919050565b600067ffffffffffffffff82111562000c4f5762000c4e62000de0565b5b602082029050602081019050919050565b600067ffffffffffffffff82111562000c7e5762000c7d62000de0565b5b601f19601f8301169050602081019050919050565b600081519050919050565b600082825260208201905092915050565b600062000cbc8262000d0c565b915062000cc98362000d0c565b9250827fffffffffffffffffffffffffffffffffffffffffffffffffffffffffffffffff0382111562000d015762000d0062000d82565b5b828201905092915050565b6000819050919050565b60005b8381101562000d3657808201518184015260208101905062000d19565b8381111562000d46576000848401525b50505050565b6000600282049050600182168062000d6557607f821691505b6020821081141562000d7c5762000d7b62000db1565b5b50919050565b7f4e487b7100000000000000000000000000000000000000000000000000000000600052601160045260246000fd5b7f4e487b7100000000000000000000000000000000000000000000000000000000600052602260045260246000fd5b7f4e487b7100000000000000000000000000000000000000000000000000000000600052604160045260246000fd5b6000601f19601f8301169050919050565b62000e2b8162000d0c565b811462000e3757600080fd5b50565b6147b08062000e4a6000396000f3fe608060405234801561001057600080fd5b50600436106101375760003560e01c806395d89b41116100b8578063b953084e1161007c578063b953084e14610369578063c3995b9914610387578063c87b56dd146103a3578063c8cf27f4146103d3578063d4f24c5b146103f1578063e985e9c5146103fb57610137565b806395d89b41146102bc57806398da4c95146102da578063a22cb4651461030f578063a9c326791461032b578063b88d4fde1461034d57610137565b806323b872dd116100ff57806323b872dd146101f457806342842e0e146102105780636352211e1461022c57806370a082311461025c5780637df124a11461028c57610137565b806301ffc9a71461013c5780630665f9611461016c57806306fdde031461018a578063081812fc146101a8578063095ea7b3146101d8575b600080fd5b61015660048036038101906101519190612ffa565b61042b565b6040516101639190613d80565b60405180910390f35b61017461050d565b6040516101819190614104565b60405180910390f35b610192610669565b60405161019f9190613d9b565b60405180910390f35b6101c260048036038101906101bd919061304c565b6106fb565b6040516101cf9190613cc0565b60405180910390f35b6101f260048036038101906101ed9190612fbe565b610780565b005b61020e60048036038101906102099190612eb8565b610898565b005b61022a60048036038101906102259190612eb8565b6108f8565b005b6102466004803603810190610241919061304c565b610918565b6040516102539190613cc0565b60405180910390f35b61027660048036038101906102719190612e53565b6109ca565b6040516102839190614148565b60405180910390f35b6102a660048036038101906102a19190612e53565b610a82565b6040516102b39190614148565b60405180910390f35b6102c4610a9a565b6040516102d19190613d9b565b60405180910390f35b6102f460048036038101906102ef919061304c565b610b2c565b60405161030696959493929190614163565b60405180910390f35b61032960048036038101906103249190612f82565b610c78565b005b610333610c8e565b604051610344959493929190613e55565b60405180910390f35b61036760048036038101906103629190612f07565b610dc2565b005b610371610e24565b60405161037e9190613d5e565b60405180910390f35b6103a1600480360381019061039c919061304c565b610fcf565b005b6103bd60048036038101906103b8919061304c565b6113c3565b6040516103ca9190613d9b565b60405180910390f35b6103db6115de565b6040516103e89190614126565b60405180910390f35b6103f96117b6565b005b61041560048036038101906104109190612e7c565b611b41565b6040516104229190613d80565b60405180910390f35b60007f80ac58cd000000000000000000000000000000000000000000000000000000007bffffffffffffffffffffffffffffffffffffffffffffffffffffffff1916827bffffffffffffffffffffffffffffffffffffffffffffffffffffffff191614806104f657507f5b5e139f000000000000000000000000000000000000000000000000000000007bffffffffffffffffffffffffffffffffffffffffffffffffffffffff1916827bffffffffffffffffffffffffffffffffffffffffffffffffffffffff1916145b80610506575061050582611c8a565b5b9050919050565b610515612c7a565b600a6040518060a0016040529081600082018054610532906144b4565b80601f016020809104026020016040519081016040528092919081815260200182805461055e906144b4565b80156105ab5780601f10610580576101008083540402835291602001916105ab565b820191906000526020600020905b81548152906001019060200180831161058e57829003601f168201915b505050505081526020016001820180546105c4906144b4565b80601f01602080910402602001604051908101604052809291908181526020018280546105f0906144b4565b801561063d5780601f106106125761010080835404028352916020019161063d565b820191906000526020600020905b81548152906001019060200180831161062057829003601f168201915b505050505081526020016002820154815260200160038201548152602001600482015481525050905090565b606060008054610678906144b4565b80601f01602080910402602001604051908101604052809291908181526020018280546106a4906144b4565b80156106f15780601f106106c6576101008083540402835291602001916106f1565b820191906000526020600020905b8154815290600101906020018083116106d457829003601f168201915b5050505050905090565b600061070682611cf4565b610745576040517f08c379a000000000000000000000000000000000000000000000000000000000815260040161073c90614064565b60405180910390fd5b6004600083815260200190815260200160002060009054906101000a900473ffffffffffffffffffffffffffffffffffffffff169050919050565b600061078b82610918565b90508073ffffffffffffffffffffffffffffffffffffffff168373ffffffffffffffffffffffffffffffffffffffff1614156107fc576040517f08c379a00000000000000000000000000000000000000000000000000000000081526004016107f3906140a4565b60405180910390fd5b8073ffffffffffffffffffffffffffffffffffffffff1661081b611d60565b73ffffffffffffffffffffffffffffffffffffffff16148061084a575061084981610844611d60565b611b41565b5b610889576040517f08c379a000000000000000000000000000000000000000000000000000000000815260040161088090613fe4565b60405180910390fd5b6108938383611d68565b505050565b6108a96108a3611d60565b82611e21565b6108e8576040517f08c379a00000000000000000000000000000000000000000000000000000000081526004016108df906140c4565b60405180910390fd5b6108f3838383611eff565b505050565b61091383838360405180602001604052806000815250610dc2565b505050565b6000806002600084815260200190815260200160002060009054906101000a900473ffffffffffffffffffffffffffffffffffffffff169050600073ffffffffffffffffffffffffffffffffffffffff168173ffffffffffffffffffffffffffffffffffffffff1614156109c1576040517f08c379a00000000000000000000000000000000000000000000000000000000081526004016109b890614024565b60405180910390fd5b80915050919050565b60008073ffffffffffffffffffffffffffffffffffffffff168273ffffffffffffffffffffffffffffffffffffffff161415610a3b576040517f08c379a0000000000000000000000000000000000000000000000000000000008152600401610a3290614004565b60405180910390fd5b600360008373ffffffffffffffffffffffffffffffffffffffff1673ffffffffffffffffffffffffffffffffffffffff168152602001908152602001600020549050919050565b60096020528060005260406000206000915090505481565b606060018054610aa9906144b4565b80601f0160208091040260200160405190810160405280929190818152602001828054610ad5906144b4565b8015610b225780601f10610af757610100808354040283529160200191610b22565b820191906000526020600020905b815481529060010190602001808311610b0557829003601f168201915b5050505050905090565b6008602052806000526040600020600091509050806000015490806001018054610b55906144b4565b80601f0160208091040260200160405190810160405280929190818152602001828054610b81906144b4565b8015610bce5780601f10610ba357610100808354040283529160200191610bce565b820191906000526020600020905b815481529060010190602001808311610bb157829003601f168201915b505050505090806002018054610be3906144b4565b80601f0160208091040260200160405190810160405280929190818152602001828054610c0f906144b4565b8015610c5c5780601f10610c3157610100808354040283529160200191610c5c565b820191906000526020600020905b815481529060010190602001808311610c3f57829003601f168201915b5050505050908060030154908060040154908060050154905086565b610c8a610c83611d60565b838361215b565b5050565b600a806000018054610c9f906144b4565b80601f0160208091040260200160405190810160405280929190818152602001828054610ccb906144b4565b8015610d185780601f10610ced57610100808354040283529160200191610d18565b820191906000526020600020905b815481529060010190602001808311610cfb57829003601f168201915b505050505090806001018054610d2d906144b4565b80601f0160208091040260200160405190810160405280929190818152602001828054610d59906144b4565b8015610da65780601f10610d7b57610100808354040283529160200191610da6565b820191906000526020600020905b815481529060010190602001808311610d8957829003601f168201915b5050505050908060020154908060030154908060040154905085565b610dd3610dcd611d60565b83611e21565b610e12576040517f08c379a0000000000000000000000000000000000000000000000000000000008152600401610e09906140c4565b60405180910390fd5b610e1e848484846122c8565b50505050565b60606006805480602002602001604051908101604052809291908181526020016000905b82821015610fc657838290600052602060002090600602016040518060c001604052908160008201548152602001600182018054610e85906144b4565b80601f0160208091040260200160405190810160405280929190818152602001828054610eb1906144b4565b8015610efe5780601f10610ed357610100808354040283529160200191610efe565b820191906000526020600020905b815481529060010190602001808311610ee157829003601f168201915b50505050508152602001600282018054610f17906144b4565b80601f0160208091040260200160405190810160405280929190818152602001828054610f43906144b4565b8015610f905780601f10610f6557610100808354040283529160200191610f90565b820191906000526020600020905b815481529060010190602001808311610f7357829003601f168201915b50505050508152602001600382015481526020016004820154815260200160058201548152505081526020019060010190610e48565b50505050905090565b6000610fdb6007612324565b9050610fe73382612332565b6040518060c0016040528083815260200160068481548110611032577f4e487b7100000000000000000000000000000000000000000000000000000000600052603260045260246000fd5b9060005260206000209060060201600101805461104e906144b4565b80601f016020809104026020016040519081016040528092919081815260200182805461107a906144b4565b80156110c75780601f1061109c576101008083540402835291602001916110c7565b820191906000526020600020905b8154815290600101906020018083116110aa57829003601f168201915b505050505081526020016006848154811061110b577f4e487b7100000000000000000000000000000000000000000000000000000000600052603260045260246000fd5b90600052602060002090600602016002018054611127906144b4565b80601f0160208091040260200160405190810160405280929190818152602001828054611153906144b4565b80156111a05780601f10611175576101008083540402835291602001916111a0565b820191906000526020600020905b81548152906001019060200180831161118357829003601f168201915b50505050508152602001600684815481106111e4577f4e487b7100000000000000000000000000000000000000000000000000000000600052603260045260246000fd5b906000526020600020906006020160030154815260200160068481548110611235577f4e487b7100000000000000000000000000000000000000000000000000000000600052603260045260246000fd5b906000526020600020906006020160040154815260200160068481548110611286577f4e487b7100000000000000000000000000000000000000000000000000000000600052603260045260246000fd5b906000526020600020906006020160050154815250600860008381526020019081526020016000206000820151816000015560208201518160010190805190602001906112d4929190612ca9565b5060408201518160020190805190602001906112f1929190612ca9565b50606082015181600301556080820151816004015560a082015181600501559050506113366040518060600160405280602b815260200161468a602b91398284612350565b80600960003373ffffffffffffffffffffffffffffffffffffffff1673ffffffffffffffffffffffffffffffffffffffff168152602001908152602001600020819055506113846007611c74565b7f4bc303fd457a97b4691b9af582ce71868a3d258638c8d4f8c60988a0f0bfb8cd3382846040516113b793929190613d27565b60405180910390a15050565b60606000600860008481526020019081526020016000206040518060c0016040529081600082015481526020016001820180546113ff906144b4565b80601f016020809104026020016040519081016040528092919081815260200182805461142b906144b4565b80156114785780601f1061144d57610100808354040283529160200191611478565b820191906000526020600020905b81548152906001019060200180831161145b57829003601f168201915b50505050508152602001600282018054611491906144b4565b80601f01602080910402602001604051908101604052809291908181526020018280546114bd906144b4565b801561150a5780601f106114df5761010080835404028352916020019161150a565b820191906000526020600020905b8154815290600101906020018083116114ed57829003601f168201915b5050505050815260200160038201548152602001600482015481526020016005820154815250509050600061154282606001516123ef565b9050600061155383608001516123ef565b905060006115648460a001516123ef565b905060006115aa8560200151611579896123ef565b876040015187878760405160200161159696959493929190613bf9565b60405160208183030381529060405261259c565b90506000816040516020016115bf9190613c9e565b6040516020818303038152906040529050809650505050505050919050565b6115e6612d2f565b6000600960003373ffffffffffffffffffffffffffffffffffffffff1673ffffffffffffffffffffffffffffffffffffffff16815260200190815260200160002054905060008111156117a557600860008281526020019081526020016000206040518060c00160405290816000820154815260200160018201805461166b906144b4565b80601f0160208091040260200160405190810160405280929190818152602001828054611697906144b4565b80156116e45780601f106116b9576101008083540402835291602001916116e4565b820191906000526020600020905b8154815290600101906020018083116116c757829003601f168201915b505050505081526020016002820180546116fd906144b4565b80601f0160208091040260200160405190810160405280929190818152602001828054611729906144b4565b80156117765780601f1061174b57610100808354040283529160200191611776565b820191906000526020600020905b81548152906001019060200180831161175957829003601f168201915b5050505050815260200160038201548152602001600482015481526020016005820154815250509150506117b3565b6117ad612d2f565b80925050505b90565b6000600960003373ffffffffffffffffffffffffffffffffffffffff1673ffffffffffffffffffffffffffffffffffffffff16815260200190815260200160002054905060006008600083815260200190815260200160002090506118c96040518060600160405280603981526020016146da6039913982600101805461183c906144b4565b80601f0160208091040260200160405190810160405280929190818152602001828054611868906144b4565b80156118b55780601f1061188a576101008083540402835291602001916118b5565b820191906000526020600020905b81548152906001019060200180831161189857829003601f168201915b50505050508360030154846005015461273b565b6119a16040518060400160405280601b81526020017f426f73732025732068617320257320485020616e642025732041440000000000815250600a6000018054611912906144b4565b80601f016020809104026020016040519081016040528092919081815260200182805461193e906144b4565b801561198b5780601f106119605761010080835404028352916020019161198b565b820191906000526020600020905b81548152906001019060200180831161196e57829003601f168201915b5050505050600a60020154600a6004015461273b565b60008160030154116119e8576040517f08c379a00000000000000000000000000000000000000000000000000000000081526004016119df90613fa4565b60405180910390fd5b6000600a6002015411611a30576040517f08c379a0000000000000000000000000000000000000000000000000000000008152600401611a27906140e4565b60405180910390fd5b600a6002015481600501541115611a51576000600a60020181905550611a70565b8060050154600a60020154611a6691906143ca565b600a600201819055505b8060030154600a600401541115611a905760008160030181905550611aae565b600a600401548160030154611aa591906143ca565b81600301819055505b611ad56040518060600160405280602581526020016146b560259139600a600201546127dd565b611afb6040518060600160405280602881526020016147536028913982600301546127dd565b7f838ab28464562786a6c4ab2311964b82fa60bd9b14aa7e856af1f3f18d41a414600a600201548260030154604051611b359291906141d2565b60405180910390a15050565b6000600560008473ffffffffffffffffffffffffffffffffffffffff1673ffffffffffffffffffffffffffffffffffffffff16815260200190815260200160002060008373ffffffffffffffffffffffffffffffffffffffff1673ffffffffffffffffffffffffffffffffffffffff16815260200190815260200160002060009054906101000a900460ff16905092915050565b611c6f838383604051602401611bed93929190613dbd565b6040516020818303038152906040527ff362ca59000000000000000000000000000000000000000000000000000000007bffffffffffffffffffffffffffffffffffffffffffffffffffffffff19166020820180517bffffffffffffffffffffffffffffffffffffffffffffffffffffffff8381831617835250505050612879565b505050565b6001816000016000828254019250508190555050565b60007f01ffc9a7000000000000000000000000000000000000000000000000000000007bffffffffffffffffffffffffffffffffffffffffffffffffffffffff1916827bffffffffffffffffffffffffffffffffffffffffffffffffffffffff1916149050919050565b60008073ffffffffffffffffffffffffffffffffffffffff166002600084815260200190815260200160002060009054906101000a900473ffffffffffffffffffffffffffffffffffffffff1673ffffffffffffffffffffffffffffffffffffffff1614159050919050565b600033905090565b816004600083815260200190815260200160002060006101000a81548173ffffffffffffffffffffffffffffffffffffffff021916908373ffffffffffffffffffffffffffffffffffffffff160217905550808273ffffffffffffffffffffffffffffffffffffffff16611ddb83610918565b73ffffffffffffffffffffffffffffffffffffffff167f8c5be1e5ebec7d5bd14f71427d1e84f3dd0314c0f7b2291e5b200ac8c7c3b92560405160405180910390a45050565b6000611e2c82611cf4565b611e6b576040517f08c379a0000000000000000000000000000000000000000000000000000000008152600401611e6290613fc4565b60405180910390fd5b6000611e7683610918565b90508073ffffffffffffffffffffffffffffffffffffffff168473ffffffffffffffffffffffffffffffffffffffff161480611ee557508373ffffffffffffffffffffffffffffffffffffffff16611ecd846106fb565b73ffffffffffffffffffffffffffffffffffffffff16145b80611ef65750611ef58185611b41565b5b91505092915050565b8273ffffffffffffffffffffffffffffffffffffffff16611f1f82610918565b73ffffffffffffffffffffffffffffffffffffffff1614611f75576040517f08c379a0000000000000000000000000000000000000000000000000000000008152600401611f6c90614084565b60405180910390fd5b600073ffffffffffffffffffffffffffffffffffffffff168273ffffffffffffffffffffffffffffffffffffffff161415611fe5576040517f08c379a0000000000000000000000000000000000000000000000000000000008152600401611fdc90613f64565b60405180910390fd5b611ff08383836128a2565b611ffb600082611d68565b6001600360008573ffffffffffffffffffffffffffffffffffffffff1673ffffffffffffffffffffffffffffffffffffffff168152602001908152602001600020600082825461204b91906143ca565b925050819055506001600360008473ffffffffffffffffffffffffffffffffffffffff1673ffffffffffffffffffffffffffffffffffffffff16815260200190815260200160002060008282546120a291906142e9565b92505081905550816002600083815260200190815260200160002060006101000a81548173ffffffffffffffffffffffffffffffffffffffff021916908373ffffffffffffffffffffffffffffffffffffffff160217905550808273ffffffffffffffffffffffffffffffffffffffff168473ffffffffffffffffffffffffffffffffffffffff167fddf252ad1be2c89b69c2b068fc378daa952ba7f163c4a11628f55a4df523b3ef60405160405180910390a4505050565b8173ffffffffffffffffffffffffffffffffffffffff168373ffffffffffffffffffffffffffffffffffffffff1614156121ca576040517f08c379a00000000000000000000000000000000000000000000000000000000081526004016121c190613f84565b60405180910390fd5b80600560008573ffffffffffffffffffffffffffffffffffffffff1673ffffffffffffffffffffffffffffffffffffffff16815260200190815260200160002060008473ffffffffffffffffffffffffffffffffffffffff1673ffffffffffffffffffffffffffffffffffffffff16815260200190815260200160002060006101000a81548160ff0219169083151502179055508173ffffffffffffffffffffffffffffffffffffffff168373ffffffffffffffffffffffffffffffffffffffff167f17307eab39ab6107e8899845ad3d59bd9653f200f220920489ca2b5937696c31836040516122bb9190613d80565b60405180910390a3505050565b6122d3848484611eff565b6122df848484846128a7565b61231e576040517f08c379a000000000000000000000000000000000000000000000000000000000815260040161231590613f24565b60405180910390fd5b50505050565b600081600001549050919050565b61234c828260405180602001604052806000815250612a3e565b5050565b6123ea83838360405160240161236893929190613ee6565b6040516020818303038152906040527f969cdd03000000000000000000000000000000000000000000000000000000007bffffffffffffffffffffffffffffffffffffffffffffffffffffffff19166020820180517bffffffffffffffffffffffffffffffffffffffffffffffffffffffff8381831617835250505050612879565b505050565b60606000821415612437576040518060400160405280600181526020017f30000000000000000000000000000000000000000000000000000000000000008152509050612597565b600082905060005b60008214612469578080612452906144e6565b915050600a82612462919061433f565b915061243f565b60008167ffffffffffffffff8111156124ab577f4e487b7100000000000000000000000000000000000000000000000000000000600052604160045260246000fd5b6040519080825280601f01601f1916602001820160405280156124dd5781602001600182028036833780820191505090505b5090505b60008514612590576001826124f691906143ca565b9150600a85612505919061452f565b603061251191906142e9565b60f81b81838151811061254d577f4e487b7100000000000000000000000000000000000000000000000000000000600052603260045260246000fd5b60200101907effffffffffffffffffffffffffffffffffffffffffffffffffffffffffffff1916908160001a905350600a85612589919061433f565b94506124e1565b8093505050505b919050565b60606000825114156125bf57604051806020016040528060008152509050612736565b600060405180606001604052806040815260200161471360409139905060006003600285516125ee91906142e9565b6125f8919061433f565b60046126049190614370565b9050600060208261261591906142e9565b67ffffffffffffffff811115612654577f4e487b7100000000000000000000000000000000000000000000000000000000600052604160045260246000fd5b6040519080825280601f01601f1916602001820160405280156126865781602001600182028036833780820191505090505b509050818152600183018586518101602084015b818310156126f5576003830192508251603f8160121c168501518253600182019150603f81600c1c168501518253600182019150603f8160061c168501518253600182019150603f811685015182536001820191505061269a565b60038951066001811461270f576002811461271f5761272a565b613d3d60f01b600283035261272a565b603d60f81b60018303525b50505050508093505050505b919050565b6127d7848484846040516024016127559493929190613e02565b6040516020818303038152906040527fd5cf17d0000000000000000000000000000000000000000000000000000000007bffffffffffffffffffffffffffffffffffffffffffffffffffffffff19166020820180517bffffffffffffffffffffffffffffffffffffffffffffffffffffffff8381831617835250505050612879565b50505050565b61287582826040516024016127f3929190613eb6565b6040516020818303038152906040527f9710a9d0000000000000000000000000000000000000000000000000000000007bffffffffffffffffffffffffffffffffffffffffffffffffffffffff19166020820180517bffffffffffffffffffffffffffffffffffffffffffffffffffffffff8381831617835250505050612879565b5050565b60008151905060006a636f6e736f6c652e6c6f679050602083016000808483855afa5050505050565b505050565b60006128c88473ffffffffffffffffffffffffffffffffffffffff16612a99565b15612a31578373ffffffffffffffffffffffffffffffffffffffff1663150b7a026128f1611d60565b8786866040518563ffffffff1660e01b81526004016129139493929190613cdb565b602060405180830381600087803b15801561292d57600080fd5b505af192505050801561295e57506040513d601f19601f8201168201806040525081019061295b9190613023565b60015b6129e1573d806000811461298e576040519150601f19603f3d011682016040523d82523d6000602084013e612993565b606091505b506000815114156129d9576040517f08c379a00000000000000000000000000000000000000000000000000000000081526004016129d090613f24565b60405180910390fd5b805181602001fd5b63150b7a0260e01b7bffffffffffffffffffffffffffffffffffffffffffffffffffffffff1916817bffffffffffffffffffffffffffffffffffffffffffffffffffffffff191614915050612a36565b600190505b949350505050565b612a488383612aac565b612a5560008484846128a7565b612a94576040517f08c379a0000000000000000000000000000000000000000000000000000000008152600401612a8b90613f24565b60405180910390fd5b505050565b600080823b905060008111915050919050565b600073ffffffffffffffffffffffffffffffffffffffff168273ffffffffffffffffffffffffffffffffffffffff161415612b1c576040517f08c379a0000000000000000000000000000000000000000000000000000000008152600401612b1390614044565b60405180910390fd5b612b2581611cf4565b15612b65576040517f08c379a0000000000000000000000000000000000000000000000000000000008152600401612b5c90613f44565b60405180910390fd5b612b71600083836128a2565b6001600360008473ffffffffffffffffffffffffffffffffffffffff1673ffffffffffffffffffffffffffffffffffffffff1681526020019081526020016000206000828254612bc191906142e9565b92505081905550816002600083815260200190815260200160002060006101000a81548173ffffffffffffffffffffffffffffffffffffffff021916908373ffffffffffffffffffffffffffffffffffffffff160217905550808273ffffffffffffffffffffffffffffffffffffffff16600073ffffffffffffffffffffffffffffffffffffffff167fddf252ad1be2c89b69c2b068fc378daa952ba7f163c4a11628f55a4df523b3ef60405160405180910390a45050565b6040518060a0016040528060608152602001606081526020016000815260200160008152602001600081525090565b828054612cb5906144b4565b90600052602060002090601f016020900481019282612cd75760008555612d1e565b82601f10612cf057805160ff1916838001178555612d1e565b82800160010185558215612d1e579182015b82811115612d1d578251825591602001919060010190612d02565b5b509050612d2b9190612d65565b5090565b6040518060c001604052806000815260200160608152602001606081526020016000815260200160008152602001600081525090565b5b80821115612d7e576000816000905550600101612d66565b5090565b6000612d95612d908461422c565b6141fb565b905082815260208101848484011115612dad57600080fd5b612db8848285614472565b509392505050565b600081359050612dcf8161462d565b92915050565b600081359050612de481614644565b92915050565b600081359050612df98161465b565b92915050565b600081519050612e0e8161465b565b92915050565b600082601f830112612e2557600080fd5b8135612e35848260208601612d82565b91505092915050565b600081359050612e4d81614672565b92915050565b600060208284031215612e6557600080fd5b6000612e7384828501612dc0565b91505092915050565b60008060408385031215612e8f57600080fd5b6000612e9d85828601612dc0565b9250506020612eae85828601612dc0565b9150509250929050565b600080600060608486031215612ecd57600080fd5b6000612edb86828701612dc0565b9350506020612eec86828701612dc0565b9250506040612efd86828701612e3e565b9150509250925092565b60008060008060808587031215612f1d57600080fd5b6000612f2b87828801612dc0565b9450506020612f3c87828801612dc0565b9350506040612f4d87828801612e3e565b925050606085013567ffffffffffffffff811115612f6a57600080fd5b612f7687828801612e14565b91505092959194509250565b60008060408385031215612f9557600080fd5b6000612fa385828601612dc0565b9250506020612fb485828601612dd5565b9150509250929050565b60008060408385031215612fd157600080fd5b6000612fdf85828601612dc0565b9250506020612ff085828601612e3e565b9150509250929050565b60006020828403121561300c57600080fd5b600061301a84828501612dea565b91505092915050565b60006020828403121561303557600080fd5b600061304384828501612dff565b91505092915050565b60006020828403121561305e57600080fd5b600061306c84828501612e3e565b91505092915050565b60006130818383613abb565b905092915050565b613092816143fe565b82525050565b60006130a38261426c565b6130ad818561429a565b9350836020820285016130bf8561425c565b8060005b858110156130fb57848403895281516130dc8582613075565b94506130e78361428d565b925060208a019950506001810190506130c3565b50829750879550505050505092915050565b61311681614410565b82525050565b600061312782614277565b61313181856142ab565b9350613141818560208601614481565b61314a8161461c565b840191505092915050565b600061316082614282565b61316a81856142bc565b935061317a818560208601614481565b6131838161461c565b840191505092915050565b600061319982614282565b6131a381856142cd565b93506131b3818560208601614481565b6131bc8161461c565b840191505092915050565b60006131d282614282565b6131dc81856142de565b93506131ec818560208601614481565b80840191505092915050565b60006132056063836142de565b91507f222c20226465736372697074696f6e223a20225468697320697320616e204e4660008301527f542074686174206c6574732070656f706c6520706c617920696e20746865206760208301527f616d65204d657461766572736520447261676f6e7321222c2022696d6167652260408301527f3a202200000000000000000000000000000000000000000000000000000000006060830152606382019050919050565b60006132b7600b836142de565b91507f202d2d204e465420233a200000000000000000000000000000000000000000006000830152600b82019050919050565b60006132f76032836142cd565b91507f4552433732313a207472616e7366657220746f206e6f6e20455243373231526560008301527f63656976657220696d706c656d656e74657200000000000000000000000000006020830152604082019050919050565b600061335d601c836142cd565b91507f4552433732313a20746f6b656e20616c7265616479206d696e746564000000006000830152602082019050919050565b600061339d600e836142de565b91507f2c20226d61785f76616c7565223a0000000000000000000000000000000000006000830152600e82019050919050565b60006133dd6024836142cd565b91507f4552433732313a207472616e7366657220746f20746865207a65726f2061646460008301527f72657373000000000000000000000000000000000000000000000000000000006020830152604082019050919050565b60006134436019836142cd565b91507f4552433732313a20617070726f766520746f2063616c6c6572000000000000006000830152602082019050919050565b60006134836026836142cd565b91507f596f752061726520616c726561647920646561642e20536f727279206e6f742060008301527f736f7272792e00000000000000000000000000000000000000000000000000006020830152604082019050919050565b60006134e9602c836142cd565b91507f4552433732313a206f70657261746f7220717565727920666f72206e6f6e657860008301527f697374656e7420746f6b656e00000000000000000000000000000000000000006020830152604082019050919050565b600061354f6038836142cd565b91507f4552433732313a20617070726f76652063616c6c6572206973206e6f74206f7760008301527f6e6572206e6f7220617070726f76656420666f7220616c6c00000000000000006020830152604082019050919050565b60006135b5602a836142cd565b91507f4552433732313a2062616c616e636520717565727920666f7220746865207a6560008301527f726f2061646472657373000000000000000000000000000000000000000000006020830152604082019050919050565b600061361b6029836142cd565b91507f4552433732313a206f776e657220717565727920666f72206e6f6e657869737460008301527f656e7420746f6b656e00000000000000000000000000000000000000000000006020830152604082019050919050565b60006136816004836142de565b91507f7d205d7d000000000000000000000000000000000000000000000000000000006000830152600482019050919050565b60006136c16020836142cd565b91507f4552433732313a206d696e7420746f20746865207a65726f20616464726573736000830152602082019050919050565b6000613701602c836142cd565b91507f4552433732313a20617070726f76656420717565727920666f72206e6f6e657860008301527f697374656e7420746f6b656e00000000000000000000000000000000000000006020830152604082019050919050565b60006137676029836142cd565b91507f4552433732313a207472616e73666572206f6620746f6b656e2074686174206960008301527f73206e6f74206f776e00000000000000000000000000000000000000000000006020830152604082019050919050565b60006137cd600a836142de565b91507f7b226e616d65223a2022000000000000000000000000000000000000000000006000830152600a82019050919050565b600061380d6021836142cd565b91507f4552433732313a20617070726f76616c20746f2063757272656e74206f776e6560008301527f72000000000000000000000000000000000000000000000000000000000000006020830152604082019050919050565b6000613873601d836142de565b91507f646174613a6170706c69636174696f6e2f6a736f6e3b6261736536342c0000006000830152601d82019050919050565b60006138b36031836142cd565b91507f4552433732313a207472616e736665722063616c6c6572206973206e6f74206f60008301527f776e6572206e6f7220617070726f7665640000000000000000000000000000006020830152604082019050919050565b60006139196025836142cd565b91507f54686520626f737320697320616c726561647920646561642e204e696365207760008301527f6f726b21210000000000000000000000000000000000000000000000000000006020830152604082019050919050565b600061397f603d836142de565b91507f222c202261747472696275746573223a205b207b202274726169745f7479706560008301527f223a20224865616c746820506f696e7473222c202276616c7565223a200000006020830152603d82019050919050565b60006139e5602d836142de565b91507f7d2c207b202274726169745f74797065223a202241747461636b2044616d616760008301527f65222c202276616c7565223a20000000000000000000000000000000000000006020830152602d82019050919050565b600060a0830160008301518482036000860152613a5b8282613155565b91505060208301518482036020860152613a758282613155565b9150506040830151613a8a6040860182613bdb565b506060830151613a9d6060860182613bdb565b506080830151613ab06080860182613bdb565b508091505092915050565b600060c083016000830151613ad36000860182613bdb565b5060208301518482036020860152613aeb8282613155565b91505060408301518482036040860152613b058282613155565b9150506060830151613b1a6060860182613bdb565b506080830151613b2d6080860182613bdb565b5060a0830151613b4060a0860182613bdb565b508091505092915050565b600060c083016000830151613b636000860182613bdb565b5060208301518482036020860152613b7b8282613155565b91505060408301518482036040860152613b958282613155565b9150506060830151613baa6060860182613bdb565b506080830151613bbd6080860182613bdb565b5060a0830151613bd060a0860182613bdb565b508091505092915050565b613be481614468565b82525050565b613bf381614468565b82525050565b6000613c04826137c0565b9150613c1082896131c7565b9150613c1b826132aa565b9150613c2782886131c7565b9150613c32826131f8565b9150613c3e82876131c7565b9150613c4982613972565b9150613c5582866131c7565b9150613c6082613390565b9150613c6c82856131c7565b9150613c77826139d8565b9150613c8382846131c7565b9150613c8e82613674565b9150819050979650505050505050565b6000613ca982613866565b9150613cb582846131c7565b915081905092915050565b6000602082019050613cd56000830184613089565b92915050565b6000608082019050613cf06000830187613089565b613cfd6020830186613089565b613d0a6040830185613bea565b8181036060830152613d1c818461311c565b905095945050505050565b6000606082019050613d3c6000830186613089565b613d496020830185613bea565b613d566040830184613bea565b949350505050565b60006020820190508181036000830152613d788184613098565b905092915050565b6000602082019050613d95600083018461310d565b92915050565b60006020820190508181036000830152613db5818461318e565b905092915050565b60006060820190508181036000830152613dd7818661318e565b90508181036020830152613deb818561318e565b9050613dfa6040830184613bea565b949350505050565b60006080820190508181036000830152613e1c818761318e565b90508181036020830152613e30818661318e565b9050613e3f6040830185613bea565b613e4c6060830184613bea565b95945050505050565b600060a0820190508181036000830152613e6f818861318e565b90508181036020830152613e83818761318e565b9050613e926040830186613bea565b613e9f6060830185613bea565b613eac6080830184613bea565b9695505050505050565b60006040820190508181036000830152613ed0818561318e565b9050613edf6020830184613bea565b9392505050565b60006060820190508181036000830152613f00818661318e565b9050613f0f6020830185613bea565b613f1c6040830184613bea565b949350505050565b60006020820190508181036000830152613f3d816132ea565b9050919050565b60006020820190508181036000830152613f5d81613350565b9050919050565b60006020820190508181036000830152613f7d816133d0565b9050919050565b60006020820190508181036000830152613f9d81613436565b9050919050565b60006020820190508181036000830152613fbd81613476565b9050919050565b60006020820190508181036000830152613fdd816134dc565b9050919050565b60006020820190508181036000830152613ffd81613542565b9050919050565b6000602082019050818103600083015261401d816135a8565b9050919050565b6000602082019050818103600083015261403d8161360e565b9050919050565b6000602082019050818103600083015261405d816136b4565b9050919050565b6000602082019050818103600083015261407d816136f4565b9050919050565b6000602082019050818103600083015261409d8161375a565b9050919050565b600060208201905081810360008301526140bd81613800565b9050919050565b600060208201905081810360008301526140dd816138a6565b9050919050565b600060208201905081810360008301526140fd8161390c565b9050919050565b6000602082019050818103600083015261411e8184613a3e565b905092915050565b600060208201905081810360008301526141408184613b4b565b905092915050565b600060208201905061415d6000830184613bea565b92915050565b600060c0820190506141786000830189613bea565b818103602083015261418a818861318e565b9050818103604083015261419e818761318e565b90506141ad6060830186613bea565b6141ba6080830185613bea565b6141c760a0830184613bea565b979650505050505050565b60006040820190506141e76000830185613bea565b6141f46020830184613bea565b9392505050565b6000604051905081810181811067ffffffffffffffff82111715614222576142216145ed565b5b8060405250919050565b600067ffffffffffffffff821115614247576142466145ed565b5b601f19601f8301169050602081019050919050565b6000819050602082019050919050565b600081519050919050565b600081519050919050565b600081519050919050565b6000602082019050919050565b600082825260208201905092915050565b600082825260208201905092915050565b600082825260208201905092915050565b600082825260208201905092915050565b600081905092915050565b60006142f482614468565b91506142ff83614468565b9250827fffffffffffffffffffffffffffffffffffffffffffffffffffffffffffffffff0382111561433457614333614560565b5b828201905092915050565b600061434a82614468565b915061435583614468565b9250826143655761436461458f565b5b828204905092915050565b600061437b82614468565b915061438683614468565b9250817fffffffffffffffffffffffffffffffffffffffffffffffffffffffffffffffff04831182151516156143bf576143be614560565b5b828202905092915050565b60006143d582614468565b91506143e083614468565b9250828210156143f3576143f2614560565b5b828203905092915050565b600061440982614448565b9050919050565b60008115159050919050565b60007fffffffff0000000000000000000000000000000000000000000000000000000082169050919050565b600073ffffffffffffffffffffffffffffffffffffffff82169050919050565b6000819050919050565b82818337600083830152505050565b60005b8381101561449f578082015181840152602081019050614484565b838111156144ae576000848401525b50505050565b600060028204905060018216806144cc57607f821691505b602082108114156144e0576144df6145be565b5b50919050565b60006144f182614468565b91507fffffffffffffffffffffffffffffffffffffffffffffffffffffffffffffffff82141561452457614523614560565b5b600182019050919050565b600061453a82614468565b915061454583614468565b9250826145555761455461458f565b5b828206905092915050565b7f4e487b7100000000000000000000000000000000000000000000000000000000600052601160045260246000fd5b7f4e487b7100000000000000000000000000000000000000000000000000000000600052601260045260246000fd5b7f4e487b7100000000000000000000000000000000000000000000000000000000600052602260045260246000fd5b7f4e487b7100000000000000000000000000000000000000000000000000000000600052604160045260246000fd5b6000601f19601f8301169050919050565b614636816143fe565b811461464157600080fd5b50565b61464d81614410565b811461465857600080fd5b50565b6146648161441c565b811461466f57600080fd5b50565b61467b81614468565b811461468657600080fd5b5056fe4d696e746564204e465420772f20746f6b656e496420257320616e6420776561706f6e496e646578202573506c617965722061747461636b656420626f73732e204e657720626f73732068703a2025730a506c6179657220772f20257320776561706f6e2061626f757420746f2061747461636b2e2048617320257320485020616e642025732041444142434445464748494a4b4c4d4e4f505152535455565758595a6162636465666768696a6b6c6d6e6f707172737475767778797a303132333435363738392b2f426f73732061747461636b656420706c617965722e204e657720706c617965722068703a2025730aa26469706673582212207a84954fdc8840d602db76e8ebccd4ce3014300289ac73060e7f52d684c6b00264736f6c63430008000033446f6e6520696e697469616c697a696e6720626f737320257320772f204850202573",
  "linkReferences": {},
  "deployedLinkReferences": {}
}